{
  "_format": "hh-sol-artifact-1",
  "contractName": "MetaObscuraReceiver",
  "sourceName": "contracts/MetaObscuraReceiver.sol",
  "abi": [
    {
      "anonymous": false,
      "inputs": [
        {
          "indexed": true,
          "internalType": "contract IERC20Upgradeable",
          "name": "token",
          "type": "address"
        },
        {
          "indexed": false,
          "internalType": "address",
          "name": "to",
          "type": "address"
        },
        {
          "indexed": false,
          "internalType": "uint256",
          "name": "amount",
          "type": "uint256"
        }
      ],
      "name": "ERC20PaymentReleased",
      "type": "event"
    },
    {
      "anonymous": false,
      "inputs": [
        {
          "indexed": true,
          "internalType": "address",
          "name": "previousOwner",
          "type": "address"
        },
        {
          "indexed": true,
          "internalType": "address",
          "name": "newOwner",
          "type": "address"
        }
      ],
      "name": "OwnershipTransferred",
      "type": "event"
    },
    {
      "anonymous": false,
      "inputs": [
        {
          "indexed": false,
          "internalType": "address",
          "name": "account",
          "type": "address"
        },
        {
          "indexed": false,
          "internalType": "uint256",
          "name": "shares",
          "type": "uint256"
        }
      ],
      "name": "PayeeAdded",
      "type": "event"
    },
    {
      "anonymous": false,
      "inputs": [
        {
          "indexed": false,
          "internalType": "address",
          "name": "from",
          "type": "address"
        },
        {
          "indexed": false,
          "internalType": "uint256",
          "name": "amount",
          "type": "uint256"
        }
      ],
      "name": "PaymentReceived",
      "type": "event"
    },
    {
      "anonymous": false,
      "inputs": [
        {
          "indexed": false,
          "internalType": "address",
          "name": "to",
          "type": "address"
        },
        {
          "indexed": false,
          "internalType": "uint256",
          "name": "amount",
          "type": "uint256"
        }
      ],
      "name": "PaymentReleased",
      "type": "event"
    },
    {
      "inputs": [],
      "name": "cameraTokenId",
      "outputs": [
        {
          "internalType": "uint256",
          "name": "",
          "type": "uint256"
        }
      ],
      "stateMutability": "view",
      "type": "function"
    },
    {
      "inputs": [
        {
          "internalType": "address",
          "name": "_metaObscuraCreator",
          "type": "address"
        },
        {
          "internalType": "uint256",
          "name": "_creatorCut",
          "type": "uint256"
        },
        {
          "internalType": "address",
          "name": "_metaObscuraContract",
          "type": "address"
        },
        {
          "internalType": "uint256",
          "name": "_cameraTokenId",
          "type": "uint256"
        },
        {
          "internalType": "uint256",
          "name": "_cameraOwnerCut",
          "type": "uint256"
        }
      ],
      "name": "init",
      "outputs": [],
      "stateMutability": "nonpayable",
      "type": "function"
    },
    {
      "inputs": [],
      "name": "metaObscuraContract",
      "outputs": [
        {
          "internalType": "address",
          "name": "",
          "type": "address"
        }
      ],
      "stateMutability": "view",
      "type": "function"
    },
    {
      "inputs": [],
      "name": "metaObscuraCreator",
      "outputs": [
        {
          "internalType": "address",
          "name": "",
          "type": "address"
        }
      ],
      "stateMutability": "view",
      "type": "function"
    },
    {
      "inputs": [],
      "name": "owner",
      "outputs": [
        {
          "internalType": "address",
          "name": "",
          "type": "address"
        }
      ],
      "stateMutability": "view",
      "type": "function"
    },
    {
      "inputs": [
        {
          "internalType": "uint256",
          "name": "index",
          "type": "uint256"
        }
      ],
      "name": "payee",
      "outputs": [
        {
          "internalType": "address",
          "name": "",
          "type": "address"
        }
      ],
      "stateMutability": "view",
      "type": "function"
    },
    {
      "inputs": [
        {
          "internalType": "contract IERC20Upgradeable",
          "name": "token",
          "type": "address"
        }
      ],
      "name": "release",
      "outputs": [],
      "stateMutability": "nonpayable",
      "type": "function"
    },
    {
      "inputs": [],
      "name": "release",
      "outputs": [],
      "stateMutability": "nonpayable",
      "type": "function"
    },
    {
      "inputs": [
        {
          "internalType": "contract IERC20Upgradeable",
          "name": "token",
          "type": "address"
        },
        {
          "internalType": "address",
          "name": "account",
          "type": "address"
        }
      ],
      "name": "released",
      "outputs": [
        {
          "internalType": "uint256",
          "name": "",
          "type": "uint256"
        }
      ],
      "stateMutability": "view",
      "type": "function"
    },
    {
      "inputs": [
        {
          "internalType": "address",
          "name": "account",
          "type": "address"
        }
      ],
      "name": "released",
      "outputs": [
        {
          "internalType": "uint256",
          "name": "",
          "type": "uint256"
        }
      ],
      "stateMutability": "view",
      "type": "function"
    },
    {
      "inputs": [],
      "name": "renounceOwnership",
      "outputs": [],
      "stateMutability": "nonpayable",
      "type": "function"
    },
    {
      "inputs": [
        {
          "internalType": "address",
          "name": "account",
          "type": "address"
        }
      ],
      "name": "shares",
      "outputs": [
        {
          "internalType": "uint256",
          "name": "",
          "type": "uint256"
        }
      ],
      "stateMutability": "view",
      "type": "function"
    },
    {
      "inputs": [
        {
          "internalType": "contract IERC20Upgradeable",
          "name": "token",
          "type": "address"
        }
      ],
      "name": "totalReleased",
      "outputs": [
        {
          "internalType": "uint256",
          "name": "",
          "type": "uint256"
        }
      ],
      "stateMutability": "view",
      "type": "function"
    },
    {
      "inputs": [],
      "name": "totalReleased",
      "outputs": [
        {
          "internalType": "uint256",
          "name": "",
          "type": "uint256"
        }
      ],
      "stateMutability": "view",
      "type": "function"
    },
    {
      "inputs": [],
      "name": "totalShares",
      "outputs": [
        {
          "internalType": "uint256",
          "name": "",
          "type": "uint256"
        }
      ],
      "stateMutability": "view",
      "type": "function"
    },
    {
      "inputs": [
        {
          "internalType": "address",
          "name": "newOwner",
          "type": "address"
        }
      ],
      "name": "transferOwnership",
      "outputs": [],
      "stateMutability": "nonpayable",
      "type": "function"
    },
    {
      "stateMutability": "payable",
      "type": "receive"
    }
  ],
  "bytecode": "0x608060405234801561001057600080fd5b50613140806100206000396000f3fe6080604052600436106100f75760003560e01c80638da5cb5b1161008a578063d79779b211610059578063d79779b214610363578063d820dc6f146103a0578063e33b7de3146103cb578063f2fde38b146103f65761013e565b80638da5cb5b146102935780638eb28290146102be5780639852595c146102e9578063ce7c2ac2146103265761013e565b8063406072a9116100c6578063406072a9146101eb578063715018a61461022857806386d1a69f1461023f5780638b83209b146102565761013e565b8063090e858314610143578063191655871461016e578063270fa80c146101975780633a98ef39146101c05761013e565b3661013e577f6ef95f06320e7a25a04a175ca677b7052bdd97131872c2192525a629f51be77061012561041f565b3460405161013492919061213d565b60405180910390a1005b600080fd5b34801561014f57600080fd5b50610158610427565b6040516101659190612166565b60405180910390f35b34801561017a57600080fd5b50610195600480360381019061019091906121c4565b61044d565b005b3480156101a357600080fd5b506101be60048036038101906101b99190612249565b610acd565b005b3480156101cc57600080fd5b506101d5610f27565b6040516101e291906122c4565b60405180910390f35b3480156101f757600080fd5b50610212600480360381019061020d91906122df565b610f31565b60405161021f91906122c4565b60405180910390f35b34801561023457600080fd5b5061023d610fb8565b005b34801561024b57600080fd5b50610254611040565b005b34801561026257600080fd5b5061027d6004803603810190610278919061231f565b6115a3565b60405161028a9190612166565b60405180910390f35b34801561029f57600080fd5b506102a86115eb565b6040516102b59190612166565b60405180910390f35b3480156102ca57600080fd5b506102d3611615565b6040516102e091906122c4565b60405180910390f35b3480156102f557600080fd5b50610310600480360381019061030b919061234c565b61161b565b60405161031d91906122c4565b60405180910390f35b34801561033257600080fd5b5061034d6004803603810190610348919061234c565b611664565b60405161035a91906122c4565b60405180910390f35b34801561036f57600080fd5b5061038a600480360381019061038591906121c4565b6116ad565b60405161039791906122c4565b60405180910390f35b3480156103ac57600080fd5b506103b56116f6565b6040516103c29190612166565b60405180910390f35b3480156103d757600080fd5b506103e061171c565b6040516103ed91906122c4565b60405180910390f35b34801561040257600080fd5b5061041d6004803603810190610418919061234c565b611726565b005b600033905090565b609f60009054906101000a900473ffffffffffffffffffffffffffffffffffffffff1681565b6000609f60009054906101000a900473ffffffffffffffffffffffffffffffffffffffff1690508073ffffffffffffffffffffffffffffffffffffffff16636352211e60a0546040518263ffffffff1660e01b81526004016104af91906122c4565b60206040518083038186803b1580156104c757600080fd5b505afa1580156104db573d6000803e3d6000fd5b505050506040513d601f19601f820116820180604052508101906104ff919061238e565b73ffffffffffffffffffffffffffffffffffffffff1661051d61041f565b73ffffffffffffffffffffffffffffffffffffffff1614806105935750609e60009054906101000a900473ffffffffffffffffffffffffffffffffffffffff1673ffffffffffffffffffffffffffffffffffffffff1661057b61041f565b73ffffffffffffffffffffffffffffffffffffffff16145b6105d2576040517f08c379a00000000000000000000000000000000000000000000000000000000081526004016105c990612418565b60405180910390fd5b60026065541415610618576040517f08c379a000000000000000000000000000000000000000000000000000000000815260040161060f90612484565b60405180910390fd5b60026065819055506000609e60009054906101000a900473ffffffffffffffffffffffffffffffffffffffff1673ffffffffffffffffffffffffffffffffffffffff1661066361041f565b73ffffffffffffffffffffffffffffffffffffffff16146106a657609f60009054906101000a900473ffffffffffffffffffffffffffffffffffffffff166106ca565b609e60009054906101000a900473ffffffffffffffffffffffffffffffffffffffff165b90506000609e60009054906101000a900473ffffffffffffffffffffffffffffffffffffffff1673ffffffffffffffffffffffffffffffffffffffff168273ffffffffffffffffffffffffffffffffffffffff16146107d557609f60009054906101000a900473ffffffffffffffffffffffffffffffffffffffff1673ffffffffffffffffffffffffffffffffffffffff16636352211e60a0546040518263ffffffff1660e01b815260040161078091906122c4565b60206040518083038186803b15801561079857600080fd5b505afa1580156107ac573d6000803e3d6000fd5b505050506040513d601f19601f820116820180604052508101906107d0919061238e565b6107f9565b609e60009054906101000a900473ffffffffffffffffffffffffffffffffffffffff165b90506000609960008473ffffffffffffffffffffffffffffffffffffffff1673ffffffffffffffffffffffffffffffffffffffff168152602001908152602001600020541161087d576040517f08c379a000000000000000000000000000000000000000000000000000000000815260040161087490612516565b60405180910390fd5b6000610888856116ad565b8573ffffffffffffffffffffffffffffffffffffffff166370a08231306040518263ffffffff1660e01b81526004016108c19190612166565b60206040518083038186803b1580156108d957600080fd5b505afa1580156108ed573d6000803e3d6000fd5b505050506040513d601f19601f82011682018060405250810190610911919061254b565b61091b91906125a7565b90506000610933848361092e8988610f31565b61181e565b90506000811415610979576040517f08c379a00000000000000000000000000000000000000000000000000000000081526004016109709061266f565b60405180910390fd5b80609d60008873ffffffffffffffffffffffffffffffffffffffff1673ffffffffffffffffffffffffffffffffffffffff16815260200190815260200160002060008673ffffffffffffffffffffffffffffffffffffffff1673ffffffffffffffffffffffffffffffffffffffff1681526020019081526020016000206000828254610a0591906125a7565b9250508190555080609c60008873ffffffffffffffffffffffffffffffffffffffff1673ffffffffffffffffffffffffffffffffffffffff1681526020019081526020016000206000828254610a5b91906125a7565b92505081905550610a6d86848361188c565b8573ffffffffffffffffffffffffffffffffffffffff167f3be5b7a71e84ed12875d241991c70855ac5817d847039e17a9d895c1ceb0f18a8583604051610ab592919061213d565b60405180910390a25050505060016065819055505050565b600060019054906101000a900460ff16610af55760008054906101000a900460ff1615610afe565b610afd611912565b5b610b3d576040517f08c379a0000000000000000000000000000000000000000000000000000000008152600401610b3490612701565b60405180910390fd5b60008060019054906101000a900460ff161590508015610b8d576001600060016101000a81548160ff02191690831515021790555060016000806101000a81548160ff0219169083151502179055505b600073ffffffffffffffffffffffffffffffffffffffff168673ffffffffffffffffffffffffffffffffffffffff161415610bc757600080fd5b600073ffffffffffffffffffffffffffffffffffffffff168473ffffffffffffffffffffffffffffffffffffffff161415610c0157600080fd5b85609e60006101000a81548173ffffffffffffffffffffffffffffffffffffffff021916908373ffffffffffffffffffffffffffffffffffffffff16021790555083609f60006101000a81548173ffffffffffffffffffffffffffffffffffffffff021916908373ffffffffffffffffffffffffffffffffffffffff1602179055508260a0819055506000600267ffffffffffffffff811115610ca757610ca6612721565b5b604051908082528060200260200182016040528015610cd55781602001602082028036833780820191505090505b5090508681600081518110610ced57610cec612750565b5b602002602001019073ffffffffffffffffffffffffffffffffffffffff16908173ffffffffffffffffffffffffffffffffffffffff16815250508481600181518110610d3c57610d3b612750565b5b602002602001019073ffffffffffffffffffffffffffffffffffffffff16908173ffffffffffffffffffffffffffffffffffffffff16815250506000600267ffffffffffffffff811115610d9357610d92612721565b5b604051908082528060200260200182016040528015610dc15781602001602082028036833780820191505090505b5090508681600081518110610dd957610dd8612750565b5b6020026020010181815250508381600181518110610dfa57610df9612750565b5b602002602001018181525050610e0e611923565b610e1661197c565b8051825114610e5a576040517f08c379a0000000000000000000000000000000000000000000000000000000008152600401610e51906127f1565b60405180910390fd5b6000825111610e9e576040517f08c379a0000000000000000000000000000000000000000000000000000000008152600401610e959061285d565b60405180910390fd5b60005b8251811015610efb57610ee8838281518110610ec057610ebf612750565b5b6020026020010151838381518110610edb57610eda612750565b5b60200260200101516119dd565b8080610ef39061287d565b915050610ea1565b5050508015610f1f5760008060016101000a81548160ff0219169083151502179055505b505050505050565b6000609754905090565b6000609d60008473ffffffffffffffffffffffffffffffffffffffff1673ffffffffffffffffffffffffffffffffffffffff16815260200190815260200160002060008373ffffffffffffffffffffffffffffffffffffffff1673ffffffffffffffffffffffffffffffffffffffff16815260200190815260200160002054905092915050565b610fc061041f565b73ffffffffffffffffffffffffffffffffffffffff16610fde6115eb565b73ffffffffffffffffffffffffffffffffffffffff1614611034576040517f08c379a000000000000000000000000000000000000000000000000000000000815260040161102b90612912565b60405180910390fd5b61103e6000611c0a565b565b6000609f60009054906101000a900473ffffffffffffffffffffffffffffffffffffffff1690508073ffffffffffffffffffffffffffffffffffffffff16636352211e60a0546040518263ffffffff1660e01b81526004016110a291906122c4565b60206040518083038186803b1580156110ba57600080fd5b505afa1580156110ce573d6000803e3d6000fd5b505050506040513d601f19601f820116820180604052508101906110f2919061238e565b73ffffffffffffffffffffffffffffffffffffffff1661111061041f565b73ffffffffffffffffffffffffffffffffffffffff1614806111865750609e60009054906101000a900473ffffffffffffffffffffffffffffffffffffffff1673ffffffffffffffffffffffffffffffffffffffff1661116e61041f565b73ffffffffffffffffffffffffffffffffffffffff16145b6111c5576040517f08c379a00000000000000000000000000000000000000000000000000000000081526004016111bc90612418565b60405180910390fd5b6002606554141561120b576040517f08c379a000000000000000000000000000000000000000000000000000000000815260040161120290612484565b60405180910390fd5b60026065819055506000609e60009054906101000a900473ffffffffffffffffffffffffffffffffffffffff1673ffffffffffffffffffffffffffffffffffffffff1661125661041f565b73ffffffffffffffffffffffffffffffffffffffff161461129957609f60009054906101000a900473ffffffffffffffffffffffffffffffffffffffff166112bd565b609e60009054906101000a900473ffffffffffffffffffffffffffffffffffffffff165b90506000609e60009054906101000a900473ffffffffffffffffffffffffffffffffffffffff1673ffffffffffffffffffffffffffffffffffffffff168273ffffffffffffffffffffffffffffffffffffffff16146113c857609f60009054906101000a900473ffffffffffffffffffffffffffffffffffffffff1673ffffffffffffffffffffffffffffffffffffffff16636352211e60a0546040518263ffffffff1660e01b815260040161137391906122c4565b60206040518083038186803b15801561138b57600080fd5b505afa15801561139f573d6000803e3d6000fd5b505050506040513d601f19601f820116820180604052508101906113c3919061238e565b6113ec565b609e60009054906101000a900473ffffffffffffffffffffffffffffffffffffffff165b90506000609960008473ffffffffffffffffffffffffffffffffffffffff1673ffffffffffffffffffffffffffffffffffffffff1681526020019081526020016000205411611470576040517f08c379a000000000000000000000000000000000000000000000000000000000815260040161146790612516565b60405180910390fd5b600061147a61171c565b4761148591906125a7565b9050600061149c84836114978761161b565b61181e565b905060008114156114e2576040517f08c379a00000000000000000000000000000000000000000000000000000000081526004016114d99061266f565b60405180910390fd5b80609a60008673ffffffffffffffffffffffffffffffffffffffff1673ffffffffffffffffffffffffffffffffffffffff168152602001908152602001600020600082825461153191906125a7565b92505081905550806098600082825461154a91906125a7565b9250508190555061155b8382611cd0565b7fdf20fd1e76bc69d672e4814fafb2c449bba3a5369d8359adf9e05e6fde87b056848260405161158c92919061213d565b60405180910390a150505050600160658190555050565b6000609b82815481106115b9576115b8612750565b5b9060005260206000200160009054906101000a900473ffffffffffffffffffffffffffffffffffffffff169050919050565b6000603360009054906101000a900473ffffffffffffffffffffffffffffffffffffffff16905090565b60a05481565b6000609a60008373ffffffffffffffffffffffffffffffffffffffff1673ffffffffffffffffffffffffffffffffffffffff168152602001908152602001600020549050919050565b6000609960008373ffffffffffffffffffffffffffffffffffffffff1673ffffffffffffffffffffffffffffffffffffffff168152602001908152602001600020549050919050565b6000609c60008373ffffffffffffffffffffffffffffffffffffffff1673ffffffffffffffffffffffffffffffffffffffff168152602001908152602001600020549050919050565b609e60009054906101000a900473ffffffffffffffffffffffffffffffffffffffff1681565b6000609854905090565b61172e61041f565b73ffffffffffffffffffffffffffffffffffffffff1661174c6115eb565b73ffffffffffffffffffffffffffffffffffffffff16146117a2576040517f08c379a000000000000000000000000000000000000000000000000000000000815260040161179990612912565b60405180910390fd5b600073ffffffffffffffffffffffffffffffffffffffff168173ffffffffffffffffffffffffffffffffffffffff161415611812576040517f08c379a0000000000000000000000000000000000000000000000000000000008152600401611809906129a4565b60405180910390fd5b61181b81611c0a565b50565b600081609754609960008773ffffffffffffffffffffffffffffffffffffffff1673ffffffffffffffffffffffffffffffffffffffff168152602001908152602001600020548561186f91906129c4565b6118799190612a4d565b6118839190612a7e565b90509392505050565b61190d8363a9059cbb60e01b84846040516024016118ab92919061213d565b604051602081830303815290604052907bffffffffffffffffffffffffffffffffffffffffffffffffffffffff19166020820180517bffffffffffffffffffffffffffffffffffffffffffffffffffffffff8381831617835250505050611dc4565b505050565b600061191d30611e8b565b15905090565b600060019054906101000a900460ff16611972576040517f08c379a000000000000000000000000000000000000000000000000000000000815260040161196990612b24565b60405180910390fd5b61197a611e9e565b565b600060019054906101000a900460ff166119cb576040517f08c379a00000000000000000000000000000000000000000000000000000000081526004016119c290612b24565b60405180910390fd5b6119d3611e9e565b6119db611eef565b565b600073ffffffffffffffffffffffffffffffffffffffff168273ffffffffffffffffffffffffffffffffffffffff161415611a4d576040517f08c379a0000000000000000000000000000000000000000000000000000000008152600401611a4490612bb6565b60405180910390fd5b60008111611a90576040517f08c379a0000000000000000000000000000000000000000000000000000000008152600401611a8790612c22565b60405180910390fd5b6000609960008473ffffffffffffffffffffffffffffffffffffffff1673ffffffffffffffffffffffffffffffffffffffff1681526020019081526020016000205414611b12576040517f08c379a0000000000000000000000000000000000000000000000000000000008152600401611b0990612cb4565b60405180910390fd5b609b829080600181540180825580915050600190039060005260206000200160009091909190916101000a81548173ffffffffffffffffffffffffffffffffffffffff021916908373ffffffffffffffffffffffffffffffffffffffff16021790555080609960008473ffffffffffffffffffffffffffffffffffffffff1673ffffffffffffffffffffffffffffffffffffffff1681526020019081526020016000208190555080609754611bc791906125a7565b6097819055507f40c340f65e17194d14ddddb073d3c9f888e3cb52b5aae0c6c7706b4fbc905fac8282604051611bfe92919061213d565b60405180910390a15050565b6000603360009054906101000a900473ffffffffffffffffffffffffffffffffffffffff16905081603360006101000a81548173ffffffffffffffffffffffffffffffffffffffff021916908373ffffffffffffffffffffffffffffffffffffffff1602179055508173ffffffffffffffffffffffffffffffffffffffff168173ffffffffffffffffffffffffffffffffffffffff167f8be0079c531659141344cd1fd0a4f28419497f9722a3daafe3b4186f6b6457e060405160405180910390a35050565b80471015611d13576040517f08c379a0000000000000000000000000000000000000000000000000000000008152600401611d0a90612d20565b60405180910390fd5b60008273ffffffffffffffffffffffffffffffffffffffff1682604051611d3990612d71565b60006040518083038185875af1925050503d8060008114611d76576040519150601f19603f3d011682016040523d82523d6000602084013e611d7b565b606091505b5050905080611dbf576040517f08c379a0000000000000000000000000000000000000000000000000000000008152600401611db690612df8565b60405180910390fd5b505050565b6000611e26826040518060400160405280602081526020017f5361666545524332303a206c6f772d6c6576656c2063616c6c206661696c65648152508573ffffffffffffffffffffffffffffffffffffffff16611f509092919063ffffffff16565b9050600081511115611e865780806020019051810190611e469190612e50565b611e85576040517f08c379a0000000000000000000000000000000000000000000000000000000008152600401611e7c90612eef565b60405180910390fd5b5b505050565b600080823b905060008111915050919050565b600060019054906101000a900460ff16611eed576040517f08c379a0000000000000000000000000000000000000000000000000000000008152600401611ee490612b24565b60405180910390fd5b565b600060019054906101000a900460ff16611f3e576040517f08c379a0000000000000000000000000000000000000000000000000000000008152600401611f3590612b24565b60405180910390fd5b611f4e611f4961041f565b611c0a565b565b6060611f5f8484600085611f68565b90509392505050565b606082471015611fad576040517f08c379a0000000000000000000000000000000000000000000000000000000008152600401611fa490612f81565b60405180910390fd5b611fb685611e8b565b611ff5576040517f08c379a0000000000000000000000000000000000000000000000000000000008152600401611fec90612fed565b60405180910390fd5b6000808673ffffffffffffffffffffffffffffffffffffffff16858760405161201e919061307c565b60006040518083038185875af1925050503d806000811461205b576040519150601f19603f3d011682016040523d82523d6000602084013e612060565b606091505b509150915061207082828661207c565b92505050949350505050565b6060831561208c578290506120dc565b60008351111561209f5782518084602001fd5b816040517f08c379a00000000000000000000000000000000000000000000000000000000081526004016120d391906130e8565b60405180910390fd5b9392505050565b600073ffffffffffffffffffffffffffffffffffffffff82169050919050565b600061210e826120e3565b9050919050565b61211e81612103565b82525050565b6000819050919050565b61213781612124565b82525050565b60006040820190506121526000830185612115565b61215f602083018461212e565b9392505050565b600060208201905061217b6000830184612115565b92915050565b600080fd5b600061219182612103565b9050919050565b6121a181612186565b81146121ac57600080fd5b50565b6000813590506121be81612198565b92915050565b6000602082840312156121da576121d9612181565b5b60006121e8848285016121af565b91505092915050565b6121fa81612103565b811461220557600080fd5b50565b600081359050612217816121f1565b92915050565b61222681612124565b811461223157600080fd5b50565b6000813590506122438161221d565b92915050565b600080600080600060a0868803121561226557612264612181565b5b600061227388828901612208565b955050602061228488828901612234565b945050604061229588828901612208565b93505060606122a688828901612234565b92505060806122b788828901612234565b9150509295509295909350565b60006020820190506122d9600083018461212e565b92915050565b600080604083850312156122f6576122f5612181565b5b6000612304858286016121af565b925050602061231585828601612208565b9150509250929050565b60006020828403121561233557612334612181565b5b600061234384828501612234565b91505092915050565b60006020828403121561236257612361612181565b5b600061237084828501612208565b91505092915050565b600081519050612388816121f1565b92915050565b6000602082840312156123a4576123a3612181565b5b60006123b284828501612379565b91505092915050565b600082825260208201905092915050565b7f6d757374206265207374616b65686f6c64657200000000000000000000000000600082015250565b60006124026013836123bb565b915061240d826123cc565b602082019050919050565b60006020820190508181036000830152612431816123f5565b9050919050565b7f5265656e7472616e637947756172643a207265656e7472616e742063616c6c00600082015250565b600061246e601f836123bb565b915061247982612438565b602082019050919050565b6000602082019050818103600083015261249d81612461565b9050919050565b7f5061796d656e7453706c69747465723a206163636f756e7420686173206e6f2060008201527f7368617265730000000000000000000000000000000000000000000000000000602082015250565b60006125006026836123bb565b915061250b826124a4565b604082019050919050565b6000602082019050818103600083015261252f816124f3565b9050919050565b6000815190506125458161221d565b92915050565b60006020828403121561256157612560612181565b5b600061256f84828501612536565b91505092915050565b7f4e487b7100000000000000000000000000000000000000000000000000000000600052601160045260246000fd5b60006125b282612124565b91506125bd83612124565b9250827fffffffffffffffffffffffffffffffffffffffffffffffffffffffffffffffff038211156125f2576125f1612578565b5b828201905092915050565b7f5061796d656e7453706c69747465723a206163636f756e74206973206e6f742060008201527f647565207061796d656e74000000000000000000000000000000000000000000602082015250565b6000612659602b836123bb565b9150612664826125fd565b604082019050919050565b600060208201905081810360008301526126888161264c565b9050919050565b7f496e697469616c697a61626c653a20636f6e747261637420697320616c72656160008201527f647920696e697469616c697a6564000000000000000000000000000000000000602082015250565b60006126eb602e836123bb565b91506126f68261268f565b604082019050919050565b6000602082019050818103600083015261271a816126de565b9050919050565b7f4e487b7100000000000000000000000000000000000000000000000000000000600052604160045260246000fd5b7f4e487b7100000000000000000000000000000000000000000000000000000000600052603260045260246000fd5b7f5061796d656e7453706c69747465723a2070617965657320616e64207368617260008201527f6573206c656e677468206d69736d617463680000000000000000000000000000602082015250565b60006127db6032836123bb565b91506127e68261277f565b604082019050919050565b6000602082019050818103600083015261280a816127ce565b9050919050565b7f5061796d656e7453706c69747465723a206e6f20706179656573000000000000600082015250565b6000612847601a836123bb565b915061285282612811565b602082019050919050565b600060208201905081810360008301526128768161283a565b9050919050565b600061288882612124565b91507fffffffffffffffffffffffffffffffffffffffffffffffffffffffffffffffff8214156128bb576128ba612578565b5b600182019050919050565b7f4f776e61626c653a2063616c6c6572206973206e6f7420746865206f776e6572600082015250565b60006128fc6020836123bb565b9150612907826128c6565b602082019050919050565b6000602082019050818103600083015261292b816128ef565b9050919050565b7f4f776e61626c653a206e6577206f776e657220697320746865207a65726f206160008201527f6464726573730000000000000000000000000000000000000000000000000000602082015250565b600061298e6026836123bb565b915061299982612932565b604082019050919050565b600060208201905081810360008301526129bd81612981565b9050919050565b60006129cf82612124565b91506129da83612124565b9250817fffffffffffffffffffffffffffffffffffffffffffffffffffffffffffffffff0483118215151615612a1357612a12612578565b5b828202905092915050565b7f4e487b7100000000000000000000000000000000000000000000000000000000600052601260045260246000fd5b6000612a5882612124565b9150612a6383612124565b925082612a7357612a72612a1e565b5b828204905092915050565b6000612a8982612124565b9150612a9483612124565b925082821015612aa757612aa6612578565b5b828203905092915050565b7f496e697469616c697a61626c653a20636f6e7472616374206973206e6f74206960008201527f6e697469616c697a696e67000000000000000000000000000000000000000000602082015250565b6000612b0e602b836123bb565b9150612b1982612ab2565b604082019050919050565b60006020820190508181036000830152612b3d81612b01565b9050919050565b7f5061796d656e7453706c69747465723a206163636f756e74206973207468652060008201527f7a65726f20616464726573730000000000000000000000000000000000000000602082015250565b6000612ba0602c836123bb565b9150612bab82612b44565b604082019050919050565b60006020820190508181036000830152612bcf81612b93565b9050919050565b7f5061796d656e7453706c69747465723a20736861726573206172652030000000600082015250565b6000612c0c601d836123bb565b9150612c1782612bd6565b602082019050919050565b60006020820190508181036000830152612c3b81612bff565b9050919050565b7f5061796d656e7453706c69747465723a206163636f756e7420616c726561647960008201527f2068617320736861726573000000000000000000000000000000000000000000602082015250565b6000612c9e602b836123bb565b9150612ca982612c42565b604082019050919050565b60006020820190508181036000830152612ccd81612c91565b9050919050565b7f416464726573733a20696e73756666696369656e742062616c616e6365000000600082015250565b6000612d0a601d836123bb565b9150612d1582612cd4565b602082019050919050565b60006020820190508181036000830152612d3981612cfd565b9050919050565b600081905092915050565b50565b6000612d5b600083612d40565b9150612d6682612d4b565b600082019050919050565b6000612d7c82612d4e565b9150819050919050565b7f416464726573733a20756e61626c6520746f2073656e642076616c75652c207260008201527f6563697069656e74206d61792068617665207265766572746564000000000000602082015250565b6000612de2603a836123bb565b9150612ded82612d86565b604082019050919050565b60006020820190508181036000830152612e1181612dd5565b9050919050565b60008115159050919050565b612e2d81612e18565b8114612e3857600080fd5b50565b600081519050612e4a81612e24565b92915050565b600060208284031215612e6657612e65612181565b5b6000612e7484828501612e3b565b91505092915050565b7f5361666545524332303a204552433230206f7065726174696f6e20646964206e60008201527f6f74207375636365656400000000000000000000000000000000000000000000602082015250565b6000612ed9602a836123bb565b9150612ee482612e7d565b604082019050919050565b60006020820190508181036000830152612f0881612ecc565b9050919050565b7f416464726573733a20696e73756666696369656e742062616c616e636520666f60008201527f722063616c6c0000000000000000000000000000000000000000000000000000602082015250565b6000612f6b6026836123bb565b9150612f7682612f0f565b604082019050919050565b60006020820190508181036000830152612f9a81612f5e565b9050919050565b7f416464726573733a2063616c6c20746f206e6f6e2d636f6e7472616374000000600082015250565b6000612fd7601d836123bb565b9150612fe282612fa1565b602082019050919050565b6000602082019050818103600083015261300681612fca565b9050919050565b600081519050919050565b60005b8381101561303657808201518184015260208101905061301b565b83811115613045576000848401525b50505050565b60006130568261300d565b6130608185612d40565b9350613070818560208601613018565b80840191505092915050565b6000613088828461304b565b915081905092915050565b600081519050919050565b6000601f19601f8301169050919050565b60006130ba82613093565b6130c481856123bb565b93506130d4818560208601613018565b6130dd8161309e565b840191505092915050565b6000602082019050818103600083015261310281846130af565b90509291505056fea2646970667358221220e046fb677f9c48bfce7a5c21d93d6fcff967ae1c3ac3bcece158305f56a72e9f64736f6c63430008090033",
  "linkReferences": {},
  "deployedLinkReferences": {}
}