{
  "_format": "hh-sol-artifact-1",
  "contractName": "MetaObscuraReceiver",
  "sourceName": "contracts/MetaObscuraReceiver.sol",
  "abi": [
    {
      "anonymous": false,
      "inputs": [
        {
          "indexed": true,
          "internalType": "address",
          "name": "previousOwner",
          "type": "address"
        },
        {
          "indexed": true,
          "internalType": "address",
          "name": "newOwner",
          "type": "address"
        }
      ],
      "name": "OwnershipTransferred",
      "type": "event"
    },
    {
      "anonymous": false,
      "inputs": [
        {
          "indexed": true,
          "internalType": "address",
          "name": "_receiver",
          "type": "address"
        },
        {
          "indexed": true,
          "internalType": "address",
          "name": "_tokenContract",
          "type": "address"
        },
        {
          "indexed": false,
          "internalType": "uint256",
          "name": "_amount",
          "type": "uint256"
        }
      ],
      "name": "Withdraw",
      "type": "event"
    },
    {
      "inputs": [],
      "name": "cameraOwnerCut",
      "outputs": [
        {
          "internalType": "uint256",
          "name": "",
          "type": "uint256"
        }
      ],
      "stateMutability": "view",
      "type": "function"
    },
    {
      "inputs": [],
      "name": "cameraTokenId",
      "outputs": [
        {
          "internalType": "uint256",
          "name": "",
          "type": "uint256"
        }
      ],
      "stateMutability": "view",
      "type": "function"
    },
    {
      "inputs": [],
      "name": "creatorCut",
      "outputs": [
        {
          "internalType": "uint256",
          "name": "",
          "type": "uint256"
        }
      ],
      "stateMutability": "view",
      "type": "function"
    },
    {
      "inputs": [
        {
          "internalType": "address",
          "name": "_metaObscuraCreator",
          "type": "address"
        },
        {
          "internalType": "uint256",
          "name": "_creatorCut",
          "type": "uint256"
        },
        {
          "internalType": "address",
          "name": "_metaObscuraContract",
          "type": "address"
        },
        {
          "internalType": "uint256",
          "name": "_cameraTokenId",
          "type": "uint256"
        },
        {
          "internalType": "uint256",
          "name": "_cameraOwnerCut",
          "type": "uint256"
        }
      ],
      "name": "init",
      "outputs": [],
      "stateMutability": "nonpayable",
      "type": "function"
    },
    {
      "inputs": [],
      "name": "metaObscuraContract",
      "outputs": [
        {
          "internalType": "address",
          "name": "",
          "type": "address"
        }
      ],
      "stateMutability": "view",
      "type": "function"
    },
    {
      "inputs": [],
      "name": "metaObscuraCreator",
      "outputs": [
        {
          "internalType": "address",
          "name": "",
          "type": "address"
        }
      ],
      "stateMutability": "view",
      "type": "function"
    },
    {
      "inputs": [],
      "name": "owner",
      "outputs": [
        {
          "internalType": "address",
          "name": "",
          "type": "address"
        }
      ],
      "stateMutability": "view",
      "type": "function"
    },
    {
      "inputs": [],
      "name": "renounceOwnership",
      "outputs": [],
      "stateMutability": "nonpayable",
      "type": "function"
    },
    {
      "inputs": [
        {
          "internalType": "address",
          "name": "_contractAddress",
          "type": "address"
        }
      ],
      "name": "retrieveFromEscrow",
      "outputs": [],
      "stateMutability": "nonpayable",
      "type": "function"
    },
    {
      "inputs": [],
      "name": "totalCameraOwnerWithdrawn",
      "outputs": [
        {
          "internalType": "uint256",
          "name": "",
          "type": "uint256"
        }
      ],
      "stateMutability": "view",
      "type": "function"
    },
    {
      "inputs": [],
      "name": "totalCreatorWithdrawn",
      "outputs": [
        {
          "internalType": "uint256",
          "name": "",
          "type": "uint256"
        }
      ],
      "stateMutability": "view",
      "type": "function"
    },
    {
      "inputs": [],
      "name": "totalReceived",
      "outputs": [
        {
          "internalType": "uint256",
          "name": "",
          "type": "uint256"
        }
      ],
      "stateMutability": "view",
      "type": "function"
    },
    {
      "inputs": [
        {
          "internalType": "address",
          "name": "newOwner",
          "type": "address"
        }
      ],
      "name": "transferOwnership",
      "outputs": [],
      "stateMutability": "nonpayable",
      "type": "function"
    },
    {
      "inputs": [
        {
          "internalType": "address",
          "name": "_tokenContract",
          "type": "address"
        }
      ],
      "name": "withdraw",
      "outputs": [],
      "stateMutability": "nonpayable",
      "type": "function"
    },
    {
      "stateMutability": "payable",
      "type": "receive"
    }
  ],
  "bytecode": "0x608060405234801561001057600080fd5b50611b49806100206000396000f3fe6080604052600436106100e15760003560e01c80638eb282901161007f578063d820dc6f11610059578063d820dc6f1461029c578063f2fde38b146102c7578063f40dcac9146102f0578063f552ebbd1461031b57610103565b80638eb282901461021b578063a3c2c46214610246578063af1915ff1461027157610103565b806351cff8d9116100bb57806351cff8d91461018557806360fcf988146101ae578063715018a6146101d95780638da5cb5b146101f057610103565b8063090e8583146101085780631eec064114610133578063270fa80c1461015c57610103565b36610103576100fb34609c5461034690919063ffffffff16565b609c81905550005b600080fd5b34801561011457600080fd5b5061011d61035c565b60405161012a9190611350565b60405180910390f35b34801561013f57600080fd5b5061015a6004803603810190610155919061139c565b610382565b005b34801561016857600080fd5b50610183600480360381019061017e91906113ff565b61072d565b005b34801561019157600080fd5b506101ac60048036038101906101a7919061139c565b610950565b005b3480156101ba57600080fd5b506101c3610e7b565b6040516101d09190611489565b60405180910390f35b3480156101e557600080fd5b506101ee610e81565b005b3480156101fc57600080fd5b50610205610f09565b6040516102129190611350565b60405180910390f35b34801561022757600080fd5b50610230610f33565b60405161023d9190611489565b60405180910390f35b34801561025257600080fd5b5061025b610f39565b6040516102689190611489565b60405180910390f35b34801561027d57600080fd5b50610286610f3f565b6040516102939190611489565b60405180910390f35b3480156102a857600080fd5b506102b1610f45565b6040516102be9190611350565b60405180910390f35b3480156102d357600080fd5b506102ee60048036038101906102e9919061139c565b610f6b565b005b3480156102fc57600080fd5b50610305611063565b6040516103129190611489565b60405180910390f35b34801561032757600080fd5b50610330611069565b60405161033d9190611489565b60405180910390f35b6000818361035491906114d3565b905092915050565b609860009054906101000a900473ffffffffffffffffffffffffffffffffffffffff1681565b6000609860009054906101000a900473ffffffffffffffffffffffffffffffffffffffff1690508073ffffffffffffffffffffffffffffffffffffffff16636352211e6099546040518263ffffffff1660e01b81526004016103e49190611489565b60206040518083038186803b1580156103fc57600080fd5b505afa158015610410573d6000803e3d6000fd5b505050506040513d601f19601f82011682018060405250810190610434919061153e565b73ffffffffffffffffffffffffffffffffffffffff1661045261106f565b73ffffffffffffffffffffffffffffffffffffffff1614806104c85750609760009054906101000a900473ffffffffffffffffffffffffffffffffffffffff1673ffffffffffffffffffffffffffffffffffffffff166104b061106f565b73ffffffffffffffffffffffffffffffffffffffff16145b610507576040517f08c379a00000000000000000000000000000000000000000000000000000000081526004016104fe906115c8565b60405180910390fd5b6002606554141561054d576040517f08c379a000000000000000000000000000000000000000000000000000000000815260040161054490611634565b60405180910390fd5b600260658190555060004790506000808473ffffffffffffffffffffffffffffffffffffffff1661057c61106f565b60405160240161058c9190611350565b6040516020818303038152906040527f31b3eb94000000000000000000000000000000000000000000000000000000007bffffffffffffffffffffffffffffffffffffffffffffffffffffffff19166020820180517bffffffffffffffffffffffffffffffffffffffffffffffffffffffff838183161783525050505060405161061691906116ce565b6000604051808303816000865af19150503d8060008114610653576040519150601f19603f3d011682016040523d82523d6000602084013e610658565b606091505b50915091508181906106a0576040517f08c379a0000000000000000000000000000000000000000000000000000000008152600401610697919061173a565b60405180910390fd5b50600047905060006106bb858361107790919063ffffffff16565b90506000811415610701576040517f08c379a00000000000000000000000000000000000000000000000000000000081526004016106f8906117a8565b60405180910390fd5b61071681609c5461034690919063ffffffff16565b609c81905550505050505060016065819055505050565b600060019054906101000a900460ff166107555760008054906101000a900460ff161561075e565b61075d61108d565b5b61079d576040517f08c379a00000000000000000000000000000000000000000000000000000000081526004016107949061183a565b60405180910390fd5b60008060019054906101000a900460ff1615905080156107ed576001600060016101000a81548160ff02191690831515021790555060016000806101000a81548160ff0219169083151502179055505b6064610802838761034690919063ffffffff16565b1461080c57600080fd5b600073ffffffffffffffffffffffffffffffffffffffff168673ffffffffffffffffffffffffffffffffffffffff16141561084657600080fd5b600073ffffffffffffffffffffffffffffffffffffffff168473ffffffffffffffffffffffffffffffffffffffff16141561088057600080fd5b85609760006101000a81548173ffffffffffffffffffffffffffffffffffffffff021916908373ffffffffffffffffffffffffffffffffffffffff16021790555083609860006101000a81548173ffffffffffffffffffffffffffffffffffffffff021916908373ffffffffffffffffffffffffffffffffffffffff1602179055508260998190555084609a8190555081609b8190555061091f61109e565b6109276110f7565b80156109485760008060016101000a81548160ff0219169083151502179055505b505050505050565b6000609860009054906101000a900473ffffffffffffffffffffffffffffffffffffffff1690508073ffffffffffffffffffffffffffffffffffffffff16636352211e6099546040518263ffffffff1660e01b81526004016109b29190611489565b60206040518083038186803b1580156109ca57600080fd5b505afa1580156109de573d6000803e3d6000fd5b505050506040513d601f19601f82011682018060405250810190610a02919061153e565b73ffffffffffffffffffffffffffffffffffffffff16610a2061106f565b73ffffffffffffffffffffffffffffffffffffffff161480610a965750609760009054906101000a900473ffffffffffffffffffffffffffffffffffffffff1673ffffffffffffffffffffffffffffffffffffffff16610a7e61106f565b73ffffffffffffffffffffffffffffffffffffffff16145b610ad5576040517f08c379a0000000000000000000000000000000000000000000000000000000008152600401610acc906115c8565b60405180910390fd5b60026065541415610b1b576040517f08c379a0000000000000000000000000000000000000000000000000000000008152600401610b1290611634565b60405180910390fd5b6002606581905550600073ffffffffffffffffffffffffffffffffffffffff168273ffffffffffffffffffffffffffffffffffffffff161415610e6e57600080609760009054906101000a900473ffffffffffffffffffffffffffffffffffffffff1673ffffffffffffffffffffffffffffffffffffffff16610b9c61106f565b73ffffffffffffffffffffffffffffffffffffffff161415610c3d57609760009054906101000a900473ffffffffffffffffffffffffffffffffffffffff169150610c1b609d54610c0d6064610bff609a54609c5461115890919063ffffffff16565b61116e90919063ffffffff16565b61107790919063ffffffff16565b9050610c3281609d5461034690919063ffffffff16565b609d81905550610d4e565b6000609860009054906101000a900473ffffffffffffffffffffffffffffffffffffffff1690508073ffffffffffffffffffffffffffffffffffffffff16636352211e6099546040518263ffffffff1660e01b8152600401610c9f9190611489565b60206040518083038186803b158015610cb757600080fd5b505afa158015610ccb573d6000803e3d6000fd5b505050506040513d601f19601f82011682018060405250810190610cef919061153e565b9250610d2f609e54610d216064610d13609b54609c5461115890919063ffffffff16565b61116e90919063ffffffff16565b61107790919063ffffffff16565b9150610d4682609e5461034690919063ffffffff16565b609e81905550505b6000808373ffffffffffffffffffffffffffffffffffffffff1683604051610d7590611880565b60006040518083038185875af1925050503d8060008114610db2576040519150601f19603f3d011682016040523d82523d6000602084013e610db7565b606091505b5091509150818190610dff576040517f08c379a0000000000000000000000000000000000000000000000000000000008152600401610df6919061173a565b60405180910390fd5b508573ffffffffffffffffffffffffffffffffffffffff168473ffffffffffffffffffffffffffffffffffffffff167f9b1bfa7fa9ee420a16e124f794c35ac9f90472acc99140eb2f6447c714cad8eb85604051610e5d9190611489565b60405180910390a350505050610e6f565b5b60016065819055505050565b609d5481565b610e8961106f565b73ffffffffffffffffffffffffffffffffffffffff16610ea7610f09565b73ffffffffffffffffffffffffffffffffffffffff1614610efd576040517f08c379a0000000000000000000000000000000000000000000000000000000008152600401610ef4906118e1565b60405180910390fd5b610f076000611184565b565b6000603360009054906101000a900473ffffffffffffffffffffffffffffffffffffffff16905090565b60995481565b609c5481565b609a5481565b609760009054906101000a900473ffffffffffffffffffffffffffffffffffffffff1681565b610f7361106f565b73ffffffffffffffffffffffffffffffffffffffff16610f91610f09565b73ffffffffffffffffffffffffffffffffffffffff1614610fe7576040517f08c379a0000000000000000000000000000000000000000000000000000000008152600401610fde906118e1565b60405180910390fd5b600073ffffffffffffffffffffffffffffffffffffffff168173ffffffffffffffffffffffffffffffffffffffff161415611057576040517f08c379a000000000000000000000000000000000000000000000000000000000815260040161104e90611973565b60405180910390fd5b61106081611184565b50565b609e5481565b609b5481565b600033905090565b600081836110859190611993565b905092915050565b60006110983061124a565b15905090565b600060019054906101000a900460ff166110ed576040517f08c379a00000000000000000000000000000000000000000000000000000000081526004016110e490611a39565b60405180910390fd5b6110f561125d565b565b600060019054906101000a900460ff16611146576040517f08c379a000000000000000000000000000000000000000000000000000000000815260040161113d90611a39565b60405180910390fd5b61114e61125d565b6111566112ae565b565b600081836111669190611a59565b905092915050565b6000818361117c9190611ae2565b905092915050565b6000603360009054906101000a900473ffffffffffffffffffffffffffffffffffffffff16905081603360006101000a81548173ffffffffffffffffffffffffffffffffffffffff021916908373ffffffffffffffffffffffffffffffffffffffff1602179055508173ffffffffffffffffffffffffffffffffffffffff168173ffffffffffffffffffffffffffffffffffffffff167f8be0079c531659141344cd1fd0a4f28419497f9722a3daafe3b4186f6b6457e060405160405180910390a35050565b600080823b905060008111915050919050565b600060019054906101000a900460ff166112ac576040517f08c379a00000000000000000000000000000000000000000000000000000000081526004016112a390611a39565b60405180910390fd5b565b600060019054906101000a900460ff166112fd576040517f08c379a00000000000000000000000000000000000000000000000000000000081526004016112f490611a39565b60405180910390fd5b61130d61130861106f565b611184565b565b600073ffffffffffffffffffffffffffffffffffffffff82169050919050565b600061133a8261130f565b9050919050565b61134a8161132f565b82525050565b60006020820190506113656000830184611341565b92915050565b600080fd5b6113798161132f565b811461138457600080fd5b50565b60008135905061139681611370565b92915050565b6000602082840312156113b2576113b161136b565b5b60006113c084828501611387565b91505092915050565b6000819050919050565b6113dc816113c9565b81146113e757600080fd5b50565b6000813590506113f9816113d3565b92915050565b600080600080600060a0868803121561141b5761141a61136b565b5b600061142988828901611387565b955050602061143a888289016113ea565b945050604061144b88828901611387565b935050606061145c888289016113ea565b925050608061146d888289016113ea565b9150509295509295909350565b611483816113c9565b82525050565b600060208201905061149e600083018461147a565b92915050565b7f4e487b7100000000000000000000000000000000000000000000000000000000600052601160045260246000fd5b60006114de826113c9565b91506114e9836113c9565b9250827fffffffffffffffffffffffffffffffffffffffffffffffffffffffffffffffff0382111561151e5761151d6114a4565b5b828201905092915050565b60008151905061153881611370565b92915050565b6000602082840312156115545761155361136b565b5b600061156284828501611529565b91505092915050565b600082825260208201905092915050565b7f6d757374206265207374616b65686f6c64657200000000000000000000000000600082015250565b60006115b260138361156b565b91506115bd8261157c565b602082019050919050565b600060208201905081810360008301526115e1816115a5565b9050919050565b7f5265656e7472616e637947756172643a207265656e7472616e742063616c6c00600082015250565b600061161e601f8361156b565b9150611629826115e8565b602082019050919050565b6000602082019050818103600083015261164d81611611565b9050919050565b600081519050919050565b600081905092915050565b60005b8381101561168857808201518184015260208101905061166d565b83811115611697576000848401525b50505050565b60006116a882611654565b6116b2818561165f565b93506116c281856020860161166a565b80840191505092915050565b60006116da828461169d565b915081905092915050565b600081519050919050565b6000601f19601f8301169050919050565b600061170c826116e5565b611716818561156b565b935061172681856020860161166a565b61172f816116f0565b840191505092915050565b600060208201905081810360008301526117548184611701565b905092915050565b7f70756c6c656420616d6f756e7420697320300000000000000000000000000000600082015250565b600061179260128361156b565b915061179d8261175c565b602082019050919050565b600060208201905081810360008301526117c181611785565b9050919050565b7f496e697469616c697a61626c653a20636f6e747261637420697320616c72656160008201527f647920696e697469616c697a6564000000000000000000000000000000000000602082015250565b6000611824602e8361156b565b915061182f826117c8565b604082019050919050565b6000602082019050818103600083015261185381611817565b9050919050565b50565b600061186a60008361165f565b91506118758261185a565b600082019050919050565b600061188b8261185d565b9150819050919050565b7f4f776e61626c653a2063616c6c6572206973206e6f7420746865206f776e6572600082015250565b60006118cb60208361156b565b91506118d682611895565b602082019050919050565b600060208201905081810360008301526118fa816118be565b9050919050565b7f4f776e61626c653a206e6577206f776e657220697320746865207a65726f206160008201527f6464726573730000000000000000000000000000000000000000000000000000602082015250565b600061195d60268361156b565b915061196882611901565b604082019050919050565b6000602082019050818103600083015261198c81611950565b9050919050565b600061199e826113c9565b91506119a9836113c9565b9250828210156119bc576119bb6114a4565b5b828203905092915050565b7f496e697469616c697a61626c653a20636f6e7472616374206973206e6f74206960008201527f6e697469616c697a696e67000000000000000000000000000000000000000000602082015250565b6000611a23602b8361156b565b9150611a2e826119c7565b604082019050919050565b60006020820190508181036000830152611a5281611a16565b9050919050565b6000611a64826113c9565b9150611a6f836113c9565b9250817fffffffffffffffffffffffffffffffffffffffffffffffffffffffffffffffff0483118215151615611aa857611aa76114a4565b5b828202905092915050565b7f4e487b7100000000000000000000000000000000000000000000000000000000600052601260045260246000fd5b6000611aed826113c9565b9150611af8836113c9565b925082611b0857611b07611ab3565b5b82820490509291505056fea2646970667358221220ccc6a9d9fe2e7a586d8ad40b30f1abde8a8bcfd3888ddb75f8bbd9b6bd6175c564736f6c63430008090033",
  "linkReferences": {},
  "deployedLinkReferences": {}
}