{
  "_format": "hh-sol-artifact-1",
  "contractName": "MetaObscuraReceiver",
  "sourceName": "contracts/MetaObscuraReceiver.sol",
  "abi": [
    {
      "anonymous": false,
      "inputs": [
        {
          "indexed": true,
          "internalType": "contract IERC20Upgradeable",
          "name": "token",
          "type": "address"
        },
        {
          "indexed": false,
          "internalType": "address",
          "name": "to",
          "type": "address"
        },
        {
          "indexed": false,
          "internalType": "uint256",
          "name": "amount",
          "type": "uint256"
        }
      ],
      "name": "ERC20PaymentReleased",
      "type": "event"
    },
    {
      "anonymous": false,
      "inputs": [
        {
          "indexed": true,
          "internalType": "address",
          "name": "previousOwner",
          "type": "address"
        },
        {
          "indexed": true,
          "internalType": "address",
          "name": "newOwner",
          "type": "address"
        }
      ],
      "name": "OwnershipTransferred",
      "type": "event"
    },
    {
      "anonymous": false,
      "inputs": [
        {
          "indexed": false,
          "internalType": "address",
          "name": "account",
          "type": "address"
        },
        {
          "indexed": false,
          "internalType": "uint256",
          "name": "shares",
          "type": "uint256"
        }
      ],
      "name": "PayeeAdded",
      "type": "event"
    },
    {
      "anonymous": false,
      "inputs": [
        {
          "indexed": false,
          "internalType": "address",
          "name": "from",
          "type": "address"
        },
        {
          "indexed": false,
          "internalType": "uint256",
          "name": "amount",
          "type": "uint256"
        }
      ],
      "name": "PaymentReceived",
      "type": "event"
    },
    {
      "anonymous": false,
      "inputs": [
        {
          "indexed": false,
          "internalType": "address",
          "name": "to",
          "type": "address"
        },
        {
          "indexed": false,
          "internalType": "uint256",
          "name": "amount",
          "type": "uint256"
        }
      ],
      "name": "PaymentReleased",
      "type": "event"
    },
    {
      "inputs": [],
      "name": "cameraTokenId",
      "outputs": [
        {
          "internalType": "uint256",
          "name": "",
          "type": "uint256"
        }
      ],
      "stateMutability": "view",
      "type": "function"
    },
    {
      "inputs": [
        {
          "internalType": "address",
          "name": "_metaObscuraCreator",
          "type": "address"
        },
        {
          "internalType": "uint256",
          "name": "_creatorCut",
          "type": "uint256"
        },
        {
          "internalType": "address",
          "name": "_metaObscuraContract",
          "type": "address"
        },
        {
          "internalType": "uint256",
          "name": "_cameraTokenId",
          "type": "uint256"
        },
        {
          "internalType": "uint256",
          "name": "_cameraOwnerCut",
          "type": "uint256"
        }
      ],
      "name": "init",
      "outputs": [],
      "stateMutability": "nonpayable",
      "type": "function"
    },
    {
      "inputs": [],
      "name": "metaObscuraContract",
      "outputs": [
        {
          "internalType": "address",
          "name": "",
          "type": "address"
        }
      ],
      "stateMutability": "view",
      "type": "function"
    },
    {
      "inputs": [],
      "name": "metaObscuraCreator",
      "outputs": [
        {
          "internalType": "address",
          "name": "",
          "type": "address"
        }
      ],
      "stateMutability": "view",
      "type": "function"
    },
    {
      "inputs": [],
      "name": "owner",
      "outputs": [
        {
          "internalType": "address",
          "name": "",
          "type": "address"
        }
      ],
      "stateMutability": "view",
      "type": "function"
    },
    {
      "inputs": [
        {
          "internalType": "uint256",
          "name": "index",
          "type": "uint256"
        }
      ],
      "name": "payee",
      "outputs": [
        {
          "internalType": "address",
          "name": "",
          "type": "address"
        }
      ],
      "stateMutability": "view",
      "type": "function"
    },
    {
      "inputs": [
        {
          "internalType": "contract IERC20Upgradeable",
          "name": "token",
          "type": "address"
        }
      ],
      "name": "release",
      "outputs": [],
      "stateMutability": "nonpayable",
      "type": "function"
    },
    {
      "inputs": [],
      "name": "release",
      "outputs": [],
      "stateMutability": "nonpayable",
      "type": "function"
    },
    {
      "inputs": [
        {
          "internalType": "contract IERC20Upgradeable",
          "name": "token",
          "type": "address"
        },
        {
          "internalType": "address",
          "name": "account",
          "type": "address"
        }
      ],
      "name": "released",
      "outputs": [
        {
          "internalType": "uint256",
          "name": "",
          "type": "uint256"
        }
      ],
      "stateMutability": "view",
      "type": "function"
    },
    {
      "inputs": [
        {
          "internalType": "address",
          "name": "account",
          "type": "address"
        }
      ],
      "name": "released",
      "outputs": [
        {
          "internalType": "uint256",
          "name": "",
          "type": "uint256"
        }
      ],
      "stateMutability": "view",
      "type": "function"
    },
    {
      "inputs": [],
      "name": "renounceOwnership",
      "outputs": [],
      "stateMutability": "nonpayable",
      "type": "function"
    },
    {
      "inputs": [
        {
          "internalType": "address",
          "name": "account",
          "type": "address"
        }
      ],
      "name": "shares",
      "outputs": [
        {
          "internalType": "uint256",
          "name": "",
          "type": "uint256"
        }
      ],
      "stateMutability": "view",
      "type": "function"
    },
    {
      "inputs": [
        {
          "internalType": "contract IERC20Upgradeable",
          "name": "token",
          "type": "address"
        }
      ],
      "name": "totalReleased",
      "outputs": [
        {
          "internalType": "uint256",
          "name": "",
          "type": "uint256"
        }
      ],
      "stateMutability": "view",
      "type": "function"
    },
    {
      "inputs": [],
      "name": "totalReleased",
      "outputs": [
        {
          "internalType": "uint256",
          "name": "",
          "type": "uint256"
        }
      ],
      "stateMutability": "view",
      "type": "function"
    },
    {
      "inputs": [],
      "name": "totalShares",
      "outputs": [
        {
          "internalType": "uint256",
          "name": "",
          "type": "uint256"
        }
      ],
      "stateMutability": "view",
      "type": "function"
    },
    {
      "inputs": [
        {
          "internalType": "address",
          "name": "newOwner",
          "type": "address"
        }
      ],
      "name": "transferOwnership",
      "outputs": [],
      "stateMutability": "nonpayable",
      "type": "function"
    },
    {
      "stateMutability": "payable",
      "type": "receive"
    }
  ],
  "bytecode": "0x608060405234801561001057600080fd5b50613100806100206000396000f3fe6080604052600436106100f75760003560e01c80638da5cb5b1161008a578063d79779b211610059578063d79779b214610323578063d820dc6f14610360578063e33b7de31461038b578063f2fde38b146103b6576100fe565b80638da5cb5b146102535780638eb282901461027e5780639852595c146102a9578063ce7c2ac2146102e6576100fe565b8063406072a9116100c6578063406072a9146101ab578063715018a6146101e857806386d1a69f146101ff5780638b83209b14610216576100fe565b8063090e858314610103578063191655871461012e578063270fa80c146101575780633a98ef3914610180576100fe565b366100fe57005b600080fd5b34801561010f57600080fd5b506101186103df565b60405161012591906120e4565b60405180910390f35b34801561013a57600080fd5b5061015560048036038101906101509190612142565b610405565b005b34801561016357600080fd5b5061017e600480360381019061017991906121d1565b610a85565b005b34801561018c57600080fd5b50610195610edf565b6040516101a2919061225b565b60405180910390f35b3480156101b757600080fd5b506101d260048036038101906101cd9190612276565b610ee9565b6040516101df919061225b565b60405180910390f35b3480156101f457600080fd5b506101fd610f70565b005b34801561020b57600080fd5b50610214610ff8565b005b34801561022257600080fd5b5061023d600480360381019061023891906122b6565b61155b565b60405161024a91906120e4565b60405180910390f35b34801561025f57600080fd5b506102686115a3565b60405161027591906120e4565b60405180910390f35b34801561028a57600080fd5b506102936115cd565b6040516102a0919061225b565b60405180910390f35b3480156102b557600080fd5b506102d060048036038101906102cb91906122e3565b6115d3565b6040516102dd919061225b565b60405180910390f35b3480156102f257600080fd5b5061030d600480360381019061030891906122e3565b61161c565b60405161031a919061225b565b60405180910390f35b34801561032f57600080fd5b5061034a60048036038101906103459190612142565b611665565b604051610357919061225b565b60405180910390f35b34801561036c57600080fd5b506103756116ae565b60405161038291906120e4565b60405180910390f35b34801561039757600080fd5b506103a06116d4565b6040516103ad919061225b565b60405180910390f35b3480156103c257600080fd5b506103dd60048036038101906103d891906122e3565b6116de565b005b609f60009054906101000a900473ffffffffffffffffffffffffffffffffffffffff1681565b6000609f60009054906101000a900473ffffffffffffffffffffffffffffffffffffffff1690508073ffffffffffffffffffffffffffffffffffffffff16636352211e60a0546040518263ffffffff1660e01b8152600401610467919061225b565b60206040518083038186803b15801561047f57600080fd5b505afa158015610493573d6000803e3d6000fd5b505050506040513d601f19601f820116820180604052508101906104b79190612325565b73ffffffffffffffffffffffffffffffffffffffff166104d56117d6565b73ffffffffffffffffffffffffffffffffffffffff16148061054b5750609e60009054906101000a900473ffffffffffffffffffffffffffffffffffffffff1673ffffffffffffffffffffffffffffffffffffffff166105336117d6565b73ffffffffffffffffffffffffffffffffffffffff16145b61058a576040517f08c379a0000000000000000000000000000000000000000000000000000000008152600401610581906123af565b60405180910390fd5b600260655414156105d0576040517f08c379a00000000000000000000000000000000000000000000000000000000081526004016105c79061241b565b60405180910390fd5b60026065819055506000609e60009054906101000a900473ffffffffffffffffffffffffffffffffffffffff1673ffffffffffffffffffffffffffffffffffffffff1661061b6117d6565b73ffffffffffffffffffffffffffffffffffffffff161461065e57609f60009054906101000a900473ffffffffffffffffffffffffffffffffffffffff16610682565b609e60009054906101000a900473ffffffffffffffffffffffffffffffffffffffff165b90506000609e60009054906101000a900473ffffffffffffffffffffffffffffffffffffffff1673ffffffffffffffffffffffffffffffffffffffff168273ffffffffffffffffffffffffffffffffffffffff161461078d57609f60009054906101000a900473ffffffffffffffffffffffffffffffffffffffff1673ffffffffffffffffffffffffffffffffffffffff16636352211e60a0546040518263ffffffff1660e01b8152600401610738919061225b565b60206040518083038186803b15801561075057600080fd5b505afa158015610764573d6000803e3d6000fd5b505050506040513d601f19601f820116820180604052508101906107889190612325565b6107b1565b609e60009054906101000a900473ffffffffffffffffffffffffffffffffffffffff165b90506000609960008473ffffffffffffffffffffffffffffffffffffffff1673ffffffffffffffffffffffffffffffffffffffff1681526020019081526020016000205411610835576040517f08c379a000000000000000000000000000000000000000000000000000000000815260040161082c906124ad565b60405180910390fd5b600061084085611665565b8573ffffffffffffffffffffffffffffffffffffffff166370a08231306040518263ffffffff1660e01b815260040161087991906120e4565b60206040518083038186803b15801561089157600080fd5b505afa1580156108a5573d6000803e3d6000fd5b505050506040513d601f19601f820116820180604052508101906108c991906124e2565b6108d3919061253e565b905060006108eb84836108e68988610ee9565b6117de565b90506000811415610931576040517f08c379a000000000000000000000000000000000000000000000000000000000815260040161092890612606565b60405180910390fd5b80609d60008873ffffffffffffffffffffffffffffffffffffffff1673ffffffffffffffffffffffffffffffffffffffff16815260200190815260200160002060008673ffffffffffffffffffffffffffffffffffffffff1673ffffffffffffffffffffffffffffffffffffffff16815260200190815260200160002060008282546109bd919061253e565b9250508190555080609c60008873ffffffffffffffffffffffffffffffffffffffff1673ffffffffffffffffffffffffffffffffffffffff1681526020019081526020016000206000828254610a13919061253e565b92505081905550610a2586848361184c565b8573ffffffffffffffffffffffffffffffffffffffff167f3be5b7a71e84ed12875d241991c70855ac5817d847039e17a9d895c1ceb0f18a8583604051610a6d929190612626565b60405180910390a25050505060016065819055505050565b600060019054906101000a900460ff16610aad5760008054906101000a900460ff1615610ab6565b610ab56118d2565b5b610af5576040517f08c379a0000000000000000000000000000000000000000000000000000000008152600401610aec906126c1565b60405180910390fd5b60008060019054906101000a900460ff161590508015610b45576001600060016101000a81548160ff02191690831515021790555060016000806101000a81548160ff0219169083151502179055505b600073ffffffffffffffffffffffffffffffffffffffff168673ffffffffffffffffffffffffffffffffffffffff161415610b7f57600080fd5b600073ffffffffffffffffffffffffffffffffffffffff168473ffffffffffffffffffffffffffffffffffffffff161415610bb957600080fd5b85609e60006101000a81548173ffffffffffffffffffffffffffffffffffffffff021916908373ffffffffffffffffffffffffffffffffffffffff16021790555083609f60006101000a81548173ffffffffffffffffffffffffffffffffffffffff021916908373ffffffffffffffffffffffffffffffffffffffff1602179055508260a0819055506000600267ffffffffffffffff811115610c5f57610c5e6126e1565b5b604051908082528060200260200182016040528015610c8d5781602001602082028036833780820191505090505b5090508681600081518110610ca557610ca4612710565b5b602002602001019073ffffffffffffffffffffffffffffffffffffffff16908173ffffffffffffffffffffffffffffffffffffffff16815250508481600181518110610cf457610cf3612710565b5b602002602001019073ffffffffffffffffffffffffffffffffffffffff16908173ffffffffffffffffffffffffffffffffffffffff16815250506000600267ffffffffffffffff811115610d4b57610d4a6126e1565b5b604051908082528060200260200182016040528015610d795781602001602082028036833780820191505090505b5090508681600081518110610d9157610d90612710565b5b6020026020010181815250508381600181518110610db257610db1612710565b5b602002602001018181525050610dc66118e3565b610dce61193c565b8051825114610e12576040517f08c379a0000000000000000000000000000000000000000000000000000000008152600401610e09906127b1565b60405180910390fd5b6000825111610e56576040517f08c379a0000000000000000000000000000000000000000000000000000000008152600401610e4d9061281d565b60405180910390fd5b60005b8251811015610eb357610ea0838281518110610e7857610e77612710565b5b6020026020010151838381518110610e9357610e92612710565b5b602002602001015161199d565b8080610eab9061283d565b915050610e59565b5050508015610ed75760008060016101000a81548160ff0219169083151502179055505b505050505050565b6000609754905090565b6000609d60008473ffffffffffffffffffffffffffffffffffffffff1673ffffffffffffffffffffffffffffffffffffffff16815260200190815260200160002060008373ffffffffffffffffffffffffffffffffffffffff1673ffffffffffffffffffffffffffffffffffffffff16815260200190815260200160002054905092915050565b610f786117d6565b73ffffffffffffffffffffffffffffffffffffffff16610f966115a3565b73ffffffffffffffffffffffffffffffffffffffff1614610fec576040517f08c379a0000000000000000000000000000000000000000000000000000000008152600401610fe3906128d2565b60405180910390fd5b610ff66000611bca565b565b6000609f60009054906101000a900473ffffffffffffffffffffffffffffffffffffffff1690508073ffffffffffffffffffffffffffffffffffffffff16636352211e60a0546040518263ffffffff1660e01b815260040161105a919061225b565b60206040518083038186803b15801561107257600080fd5b505afa158015611086573d6000803e3d6000fd5b505050506040513d601f19601f820116820180604052508101906110aa9190612325565b73ffffffffffffffffffffffffffffffffffffffff166110c86117d6565b73ffffffffffffffffffffffffffffffffffffffff16148061113e5750609e60009054906101000a900473ffffffffffffffffffffffffffffffffffffffff1673ffffffffffffffffffffffffffffffffffffffff166111266117d6565b73ffffffffffffffffffffffffffffffffffffffff16145b61117d576040517f08c379a0000000000000000000000000000000000000000000000000000000008152600401611174906123af565b60405180910390fd5b600260655414156111c3576040517f08c379a00000000000000000000000000000000000000000000000000000000081526004016111ba9061241b565b60405180910390fd5b60026065819055506000609e60009054906101000a900473ffffffffffffffffffffffffffffffffffffffff1673ffffffffffffffffffffffffffffffffffffffff1661120e6117d6565b73ffffffffffffffffffffffffffffffffffffffff161461125157609f60009054906101000a900473ffffffffffffffffffffffffffffffffffffffff16611275565b609e60009054906101000a900473ffffffffffffffffffffffffffffffffffffffff165b90506000609e60009054906101000a900473ffffffffffffffffffffffffffffffffffffffff1673ffffffffffffffffffffffffffffffffffffffff168273ffffffffffffffffffffffffffffffffffffffff161461138057609f60009054906101000a900473ffffffffffffffffffffffffffffffffffffffff1673ffffffffffffffffffffffffffffffffffffffff16636352211e60a0546040518263ffffffff1660e01b815260040161132b919061225b565b60206040518083038186803b15801561134357600080fd5b505afa158015611357573d6000803e3d6000fd5b505050506040513d601f19601f8201168201806040525081019061137b9190612325565b6113a4565b609e60009054906101000a900473ffffffffffffffffffffffffffffffffffffffff165b90506000609960008473ffffffffffffffffffffffffffffffffffffffff1673ffffffffffffffffffffffffffffffffffffffff1681526020019081526020016000205411611428576040517f08c379a000000000000000000000000000000000000000000000000000000000815260040161141f906124ad565b60405180910390fd5b60006114326116d4565b4761143d919061253e565b90506000611454848361144f876115d3565b6117de565b9050600081141561149a576040517f08c379a000000000000000000000000000000000000000000000000000000000815260040161149190612606565b60405180910390fd5b80609a60008673ffffffffffffffffffffffffffffffffffffffff1673ffffffffffffffffffffffffffffffffffffffff16815260200190815260200160002060008282546114e9919061253e565b925050819055508060986000828254611502919061253e565b925050819055506115138382611c90565b7fdf20fd1e76bc69d672e4814fafb2c449bba3a5369d8359adf9e05e6fde87b0568482604051611544929190612626565b60405180910390a150505050600160658190555050565b6000609b828154811061157157611570612710565b5b9060005260206000200160009054906101000a900473ffffffffffffffffffffffffffffffffffffffff169050919050565b6000603360009054906101000a900473ffffffffffffffffffffffffffffffffffffffff16905090565b60a05481565b6000609a60008373ffffffffffffffffffffffffffffffffffffffff1673ffffffffffffffffffffffffffffffffffffffff168152602001908152602001600020549050919050565b6000609960008373ffffffffffffffffffffffffffffffffffffffff1673ffffffffffffffffffffffffffffffffffffffff168152602001908152602001600020549050919050565b6000609c60008373ffffffffffffffffffffffffffffffffffffffff1673ffffffffffffffffffffffffffffffffffffffff168152602001908152602001600020549050919050565b609e60009054906101000a900473ffffffffffffffffffffffffffffffffffffffff1681565b6000609854905090565b6116e66117d6565b73ffffffffffffffffffffffffffffffffffffffff166117046115a3565b73ffffffffffffffffffffffffffffffffffffffff161461175a576040517f08c379a0000000000000000000000000000000000000000000000000000000008152600401611751906128d2565b60405180910390fd5b600073ffffffffffffffffffffffffffffffffffffffff168173ffffffffffffffffffffffffffffffffffffffff1614156117ca576040517f08c379a00000000000000000000000000000000000000000000000000000000081526004016117c190612964565b60405180910390fd5b6117d381611bca565b50565b600033905090565b600081609754609960008773ffffffffffffffffffffffffffffffffffffffff1673ffffffffffffffffffffffffffffffffffffffff168152602001908152602001600020548561182f9190612984565b6118399190612a0d565b6118439190612a3e565b90509392505050565b6118cd8363a9059cbb60e01b848460405160240161186b929190612626565b604051602081830303815290604052907bffffffffffffffffffffffffffffffffffffffffffffffffffffffff19166020820180517bffffffffffffffffffffffffffffffffffffffffffffffffffffffff8381831617835250505050611d84565b505050565b60006118dd30611e4b565b15905090565b600060019054906101000a900460ff16611932576040517f08c379a000000000000000000000000000000000000000000000000000000000815260040161192990612ae4565b60405180910390fd5b61193a611e5e565b565b600060019054906101000a900460ff1661198b576040517f08c379a000000000000000000000000000000000000000000000000000000000815260040161198290612ae4565b60405180910390fd5b611993611e5e565b61199b611eaf565b565b600073ffffffffffffffffffffffffffffffffffffffff168273ffffffffffffffffffffffffffffffffffffffff161415611a0d576040517f08c379a0000000000000000000000000000000000000000000000000000000008152600401611a0490612b76565b60405180910390fd5b60008111611a50576040517f08c379a0000000000000000000000000000000000000000000000000000000008152600401611a4790612be2565b60405180910390fd5b6000609960008473ffffffffffffffffffffffffffffffffffffffff1673ffffffffffffffffffffffffffffffffffffffff1681526020019081526020016000205414611ad2576040517f08c379a0000000000000000000000000000000000000000000000000000000008152600401611ac990612c74565b60405180910390fd5b609b829080600181540180825580915050600190039060005260206000200160009091909190916101000a81548173ffffffffffffffffffffffffffffffffffffffff021916908373ffffffffffffffffffffffffffffffffffffffff16021790555080609960008473ffffffffffffffffffffffffffffffffffffffff1673ffffffffffffffffffffffffffffffffffffffff1681526020019081526020016000208190555080609754611b87919061253e565b6097819055507f40c340f65e17194d14ddddb073d3c9f888e3cb52b5aae0c6c7706b4fbc905fac8282604051611bbe929190612626565b60405180910390a15050565b6000603360009054906101000a900473ffffffffffffffffffffffffffffffffffffffff16905081603360006101000a81548173ffffffffffffffffffffffffffffffffffffffff021916908373ffffffffffffffffffffffffffffffffffffffff1602179055508173ffffffffffffffffffffffffffffffffffffffff168173ffffffffffffffffffffffffffffffffffffffff167f8be0079c531659141344cd1fd0a4f28419497f9722a3daafe3b4186f6b6457e060405160405180910390a35050565b80471015611cd3576040517f08c379a0000000000000000000000000000000000000000000000000000000008152600401611cca90612ce0565b60405180910390fd5b60008273ffffffffffffffffffffffffffffffffffffffff1682604051611cf990612d31565b60006040518083038185875af1925050503d8060008114611d36576040519150601f19603f3d011682016040523d82523d6000602084013e611d3b565b606091505b5050905080611d7f576040517f08c379a0000000000000000000000000000000000000000000000000000000008152600401611d7690612db8565b60405180910390fd5b505050565b6000611de6826040518060400160405280602081526020017f5361666545524332303a206c6f772d6c6576656c2063616c6c206661696c65648152508573ffffffffffffffffffffffffffffffffffffffff16611f109092919063ffffffff16565b9050600081511115611e465780806020019051810190611e069190612e10565b611e45576040517f08c379a0000000000000000000000000000000000000000000000000000000008152600401611e3c90612eaf565b60405180910390fd5b5b505050565b600080823b905060008111915050919050565b600060019054906101000a900460ff16611ead576040517f08c379a0000000000000000000000000000000000000000000000000000000008152600401611ea490612ae4565b60405180910390fd5b565b600060019054906101000a900460ff16611efe576040517f08c379a0000000000000000000000000000000000000000000000000000000008152600401611ef590612ae4565b60405180910390fd5b611f0e611f096117d6565b611bca565b565b6060611f1f8484600085611f28565b90509392505050565b606082471015611f6d576040517f08c379a0000000000000000000000000000000000000000000000000000000008152600401611f6490612f41565b60405180910390fd5b611f7685611e4b565b611fb5576040517f08c379a0000000000000000000000000000000000000000000000000000000008152600401611fac90612fad565b60405180910390fd5b6000808673ffffffffffffffffffffffffffffffffffffffff168587604051611fde919061303c565b60006040518083038185875af1925050503d806000811461201b576040519150601f19603f3d011682016040523d82523d6000602084013e612020565b606091505b509150915061203082828661203c565b92505050949350505050565b6060831561204c5782905061209c565b60008351111561205f5782518084602001fd5b816040517f08c379a000000000000000000000000000000000000000000000000000000000815260040161209391906130a8565b60405180910390fd5b9392505050565b600073ffffffffffffffffffffffffffffffffffffffff82169050919050565b60006120ce826120a3565b9050919050565b6120de816120c3565b82525050565b60006020820190506120f960008301846120d5565b92915050565b600080fd5b600061210f826120c3565b9050919050565b61211f81612104565b811461212a57600080fd5b50565b60008135905061213c81612116565b92915050565b600060208284031215612158576121576120ff565b5b60006121668482850161212d565b91505092915050565b612178816120c3565b811461218357600080fd5b50565b6000813590506121958161216f565b92915050565b6000819050919050565b6121ae8161219b565b81146121b957600080fd5b50565b6000813590506121cb816121a5565b92915050565b600080600080600060a086880312156121ed576121ec6120ff565b5b60006121fb88828901612186565b955050602061220c888289016121bc565b945050604061221d88828901612186565b935050606061222e888289016121bc565b925050608061223f888289016121bc565b9150509295509295909350565b6122558161219b565b82525050565b6000602082019050612270600083018461224c565b92915050565b6000806040838503121561228d5761228c6120ff565b5b600061229b8582860161212d565b92505060206122ac85828601612186565b9150509250929050565b6000602082840312156122cc576122cb6120ff565b5b60006122da848285016121bc565b91505092915050565b6000602082840312156122f9576122f86120ff565b5b600061230784828501612186565b91505092915050565b60008151905061231f8161216f565b92915050565b60006020828403121561233b5761233a6120ff565b5b600061234984828501612310565b91505092915050565b600082825260208201905092915050565b7f6d757374206265207374616b65686f6c64657200000000000000000000000000600082015250565b6000612399601383612352565b91506123a482612363565b602082019050919050565b600060208201905081810360008301526123c88161238c565b9050919050565b7f5265656e7472616e637947756172643a207265656e7472616e742063616c6c00600082015250565b6000612405601f83612352565b9150612410826123cf565b602082019050919050565b60006020820190508181036000830152612434816123f8565b9050919050565b7f5061796d656e7453706c69747465723a206163636f756e7420686173206e6f2060008201527f7368617265730000000000000000000000000000000000000000000000000000602082015250565b6000612497602683612352565b91506124a28261243b565b604082019050919050565b600060208201905081810360008301526124c68161248a565b9050919050565b6000815190506124dc816121a5565b92915050565b6000602082840312156124f8576124f76120ff565b5b6000612506848285016124cd565b91505092915050565b7f4e487b7100000000000000000000000000000000000000000000000000000000600052601160045260246000fd5b60006125498261219b565b91506125548361219b565b9250827fffffffffffffffffffffffffffffffffffffffffffffffffffffffffffffffff038211156125895761258861250f565b5b828201905092915050565b7f5061796d656e7453706c69747465723a206163636f756e74206973206e6f742060008201527f647565207061796d656e74000000000000000000000000000000000000000000602082015250565b60006125f0602b83612352565b91506125fb82612594565b604082019050919050565b6000602082019050818103600083015261261f816125e3565b9050919050565b600060408201905061263b60008301856120d5565b612648602083018461224c565b9392505050565b7f496e697469616c697a61626c653a20636f6e747261637420697320616c72656160008201527f647920696e697469616c697a6564000000000000000000000000000000000000602082015250565b60006126ab602e83612352565b91506126b68261264f565b604082019050919050565b600060208201905081810360008301526126da8161269e565b9050919050565b7f4e487b7100000000000000000000000000000000000000000000000000000000600052604160045260246000fd5b7f4e487b7100000000000000000000000000000000000000000000000000000000600052603260045260246000fd5b7f5061796d656e7453706c69747465723a2070617965657320616e64207368617260008201527f6573206c656e677468206d69736d617463680000000000000000000000000000602082015250565b600061279b603283612352565b91506127a68261273f565b604082019050919050565b600060208201905081810360008301526127ca8161278e565b9050919050565b7f5061796d656e7453706c69747465723a206e6f20706179656573000000000000600082015250565b6000612807601a83612352565b9150612812826127d1565b602082019050919050565b60006020820190508181036000830152612836816127fa565b9050919050565b60006128488261219b565b91507fffffffffffffffffffffffffffffffffffffffffffffffffffffffffffffffff82141561287b5761287a61250f565b5b600182019050919050565b7f4f776e61626c653a2063616c6c6572206973206e6f7420746865206f776e6572600082015250565b60006128bc602083612352565b91506128c782612886565b602082019050919050565b600060208201905081810360008301526128eb816128af565b9050919050565b7f4f776e61626c653a206e6577206f776e657220697320746865207a65726f206160008201527f6464726573730000000000000000000000000000000000000000000000000000602082015250565b600061294e602683612352565b9150612959826128f2565b604082019050919050565b6000602082019050818103600083015261297d81612941565b9050919050565b600061298f8261219b565b915061299a8361219b565b9250817fffffffffffffffffffffffffffffffffffffffffffffffffffffffffffffffff04831182151516156129d3576129d261250f565b5b828202905092915050565b7f4e487b7100000000000000000000000000000000000000000000000000000000600052601260045260246000fd5b6000612a188261219b565b9150612a238361219b565b925082612a3357612a326129de565b5b828204905092915050565b6000612a498261219b565b9150612a548361219b565b925082821015612a6757612a6661250f565b5b828203905092915050565b7f496e697469616c697a61626c653a20636f6e7472616374206973206e6f74206960008201527f6e697469616c697a696e67000000000000000000000000000000000000000000602082015250565b6000612ace602b83612352565b9150612ad982612a72565b604082019050919050565b60006020820190508181036000830152612afd81612ac1565b9050919050565b7f5061796d656e7453706c69747465723a206163636f756e74206973207468652060008201527f7a65726f20616464726573730000000000000000000000000000000000000000602082015250565b6000612b60602c83612352565b9150612b6b82612b04565b604082019050919050565b60006020820190508181036000830152612b8f81612b53565b9050919050565b7f5061796d656e7453706c69747465723a20736861726573206172652030000000600082015250565b6000612bcc601d83612352565b9150612bd782612b96565b602082019050919050565b60006020820190508181036000830152612bfb81612bbf565b9050919050565b7f5061796d656e7453706c69747465723a206163636f756e7420616c726561647960008201527f2068617320736861726573000000000000000000000000000000000000000000602082015250565b6000612c5e602b83612352565b9150612c6982612c02565b604082019050919050565b60006020820190508181036000830152612c8d81612c51565b9050919050565b7f416464726573733a20696e73756666696369656e742062616c616e6365000000600082015250565b6000612cca601d83612352565b9150612cd582612c94565b602082019050919050565b60006020820190508181036000830152612cf981612cbd565b9050919050565b600081905092915050565b50565b6000612d1b600083612d00565b9150612d2682612d0b565b600082019050919050565b6000612d3c82612d0e565b9150819050919050565b7f416464726573733a20756e61626c6520746f2073656e642076616c75652c207260008201527f6563697069656e74206d61792068617665207265766572746564000000000000602082015250565b6000612da2603a83612352565b9150612dad82612d46565b604082019050919050565b60006020820190508181036000830152612dd181612d95565b9050919050565b60008115159050919050565b612ded81612dd8565b8114612df857600080fd5b50565b600081519050612e0a81612de4565b92915050565b600060208284031215612e2657612e256120ff565b5b6000612e3484828501612dfb565b91505092915050565b7f5361666545524332303a204552433230206f7065726174696f6e20646964206e60008201527f6f74207375636365656400000000000000000000000000000000000000000000602082015250565b6000612e99602a83612352565b9150612ea482612e3d565b604082019050919050565b60006020820190508181036000830152612ec881612e8c565b9050919050565b7f416464726573733a20696e73756666696369656e742062616c616e636520666f60008201527f722063616c6c0000000000000000000000000000000000000000000000000000602082015250565b6000612f2b602683612352565b9150612f3682612ecf565b604082019050919050565b60006020820190508181036000830152612f5a81612f1e565b9050919050565b7f416464726573733a2063616c6c20746f206e6f6e2d636f6e7472616374000000600082015250565b6000612f97601d83612352565b9150612fa282612f61565b602082019050919050565b60006020820190508181036000830152612fc681612f8a565b9050919050565b600081519050919050565b60005b83811015612ff6578082015181840152602081019050612fdb565b83811115613005576000848401525b50505050565b600061301682612fcd565b6130208185612d00565b9350613030818560208601612fd8565b80840191505092915050565b6000613048828461300b565b915081905092915050565b600081519050919050565b6000601f19601f8301169050919050565b600061307a82613053565b6130848185612352565b9350613094818560208601612fd8565b61309d8161305e565b840191505092915050565b600060208201905081810360008301526130c2818461306f565b90509291505056fea2646970667358221220c3a0658f863323d528b0702ca18c3162b95fe60bbeaddab9c685f0b72096131a64736f6c63430008090033",
  "linkReferences": {},
  "deployedLinkReferences": {}
}