{
  "_format": "hh-sol-artifact-1",
  "contractName": "TestToken",
  "sourceName": "contracts/test/TestToken.sol",
  "abi": [
    {
      "anonymous": false,
      "inputs": [
        {
          "indexed": true,
          "internalType": "address",
          "name": "owner",
          "type": "address"
        },
        {
          "indexed": true,
          "internalType": "address",
          "name": "spender",
          "type": "address"
        },
        {
          "indexed": false,
          "internalType": "uint256",
          "name": "value",
          "type": "uint256"
        }
      ],
      "name": "Approval",
      "type": "event"
    },
    {
      "anonymous": false,
      "inputs": [
        {
          "indexed": true,
          "internalType": "address",
          "name": "from",
          "type": "address"
        },
        {
          "indexed": true,
          "internalType": "address",
          "name": "to",
          "type": "address"
        },
        {
          "indexed": false,
          "internalType": "uint256",
          "name": "value",
          "type": "uint256"
        }
      ],
      "name": "Transfer",
      "type": "event"
    },
    {
      "inputs": [
        {
          "internalType": "address",
          "name": "owner",
          "type": "address"
        },
        {
          "internalType": "address",
          "name": "spender",
          "type": "address"
        }
      ],
      "name": "allowance",
      "outputs": [
        {
          "internalType": "uint256",
          "name": "",
          "type": "uint256"
        }
      ],
      "stateMutability": "view",
      "type": "function"
    },
    {
      "inputs": [
        {
          "internalType": "address",
          "name": "spender",
          "type": "address"
        },
        {
          "internalType": "uint256",
          "name": "amount",
          "type": "uint256"
        }
      ],
      "name": "approve",
      "outputs": [
        {
          "internalType": "bool",
          "name": "",
          "type": "bool"
        }
      ],
      "stateMutability": "nonpayable",
      "type": "function"
    },
    {
      "inputs": [
        {
          "internalType": "address",
          "name": "account",
          "type": "address"
        }
      ],
      "name": "balanceOf",
      "outputs": [
        {
          "internalType": "uint256",
          "name": "",
          "type": "uint256"
        }
      ],
      "stateMutability": "view",
      "type": "function"
    },
    {
      "inputs": [],
      "name": "decimals",
      "outputs": [
        {
          "internalType": "uint8",
          "name": "",
          "type": "uint8"
        }
      ],
      "stateMutability": "view",
      "type": "function"
    },
    {
      "inputs": [
        {
          "internalType": "address",
          "name": "spender",
          "type": "address"
        },
        {
          "internalType": "uint256",
          "name": "subtractedValue",
          "type": "uint256"
        }
      ],
      "name": "decreaseAllowance",
      "outputs": [
        {
          "internalType": "bool",
          "name": "",
          "type": "bool"
        }
      ],
      "stateMutability": "nonpayable",
      "type": "function"
    },
    {
      "inputs": [
        {
          "internalType": "address",
          "name": "spender",
          "type": "address"
        },
        {
          "internalType": "uint256",
          "name": "addedValue",
          "type": "uint256"
        }
      ],
      "name": "increaseAllowance",
      "outputs": [
        {
          "internalType": "bool",
          "name": "",
          "type": "bool"
        }
      ],
      "stateMutability": "nonpayable",
      "type": "function"
    },
    {
      "inputs": [],
      "name": "initialize",
      "outputs": [],
      "stateMutability": "nonpayable",
      "type": "function"
    },
    {
      "inputs": [],
      "name": "name",
      "outputs": [
        {
          "internalType": "string",
          "name": "",
          "type": "string"
        }
      ],
      "stateMutability": "view",
      "type": "function"
    },
    {
      "inputs": [],
      "name": "symbol",
      "outputs": [
        {
          "internalType": "string",
          "name": "",
          "type": "string"
        }
      ],
      "stateMutability": "view",
      "type": "function"
    },
    {
      "inputs": [],
      "name": "totalSupply",
      "outputs": [
        {
          "internalType": "uint256",
          "name": "",
          "type": "uint256"
        }
      ],
      "stateMutability": "view",
      "type": "function"
    },
    {
      "inputs": [
        {
          "internalType": "address",
          "name": "recipient",
          "type": "address"
        },
        {
          "internalType": "uint256",
          "name": "amount",
          "type": "uint256"
        }
      ],
      "name": "transfer",
      "outputs": [
        {
          "internalType": "bool",
          "name": "",
          "type": "bool"
        }
      ],
      "stateMutability": "nonpayable",
      "type": "function"
    },
    {
      "inputs": [
        {
          "internalType": "address",
          "name": "sender",
          "type": "address"
        },
        {
          "internalType": "address",
          "name": "recipient",
          "type": "address"
        },
        {
          "internalType": "uint256",
          "name": "amount",
          "type": "uint256"
        }
      ],
      "name": "transferFrom",
      "outputs": [
        {
          "internalType": "bool",
          "name": "",
          "type": "bool"
        }
      ],
      "stateMutability": "nonpayable",
      "type": "function"
    }
  ],
  "bytecode": "0x608060405234801561001057600080fd5b50611c0d806100206000396000f3fe608060405234801561001057600080fd5b50600436106100b45760003560e01c806370a082311161007157806370a08231146101a35780638129fc1c146101d357806395d89b41146101dd578063a457c2d7146101fb578063a9059cbb1461022b578063dd62ed3e1461025b576100b4565b806306fdde03146100b9578063095ea7b3146100d757806318160ddd1461010757806323b872dd14610125578063313ce567146101555780633950935114610173575b600080fd5b6100c161028b565b6040516100ce9190611139565b60405180910390f35b6100f160048036038101906100ec91906111f4565b61031d565b6040516100fe919061124f565b60405180910390f35b61010f61033b565b60405161011c9190611279565b60405180910390f35b61013f600480360381019061013a9190611294565b610345565b60405161014c919061124f565b60405180910390f35b61015d61043d565b60405161016a9190611303565b60405180910390f35b61018d600480360381019061018891906111f4565b610446565b60405161019a919061124f565b60405180910390f35b6101bd60048036038101906101b8919061131e565b6104f2565b6040516101ca9190611279565b60405180910390f35b6101db61053b565b005b6101e56106be565b6040516101f29190611139565b60405180910390f35b610215600480360381019061021091906111f4565b610750565b604051610222919061124f565b60405180910390f35b610245600480360381019061024091906111f4565b61083b565b604051610252919061124f565b60405180910390f35b6102756004803603810190610270919061134b565b610859565b6040516102829190611279565b60405180910390f35b60606036805461029a906113ba565b80601f01602080910402602001604051908101604052809291908181526020018280546102c6906113ba565b80156103135780601f106102e857610100808354040283529160200191610313565b820191906000526020600020905b8154815290600101906020018083116102f657829003601f168201915b5050505050905090565b600061033161032a6108e0565b84846108e8565b6001905092915050565b6000603554905090565b6000610352848484610ab3565b6000603460008673ffffffffffffffffffffffffffffffffffffffff1673ffffffffffffffffffffffffffffffffffffffff168152602001908152602001600020600061039d6108e0565b73ffffffffffffffffffffffffffffffffffffffff1673ffffffffffffffffffffffffffffffffffffffff1681526020019081526020016000205490508281101561041d576040517f08c379a00000000000000000000000000000000000000000000000000000000081526004016104149061145e565b60405180910390fd5b610431856104296108e0565b8584036108e8565b60019150509392505050565b60006012905090565b60006104e86104536108e0565b8484603460006104616108e0565b73ffffffffffffffffffffffffffffffffffffffff1673ffffffffffffffffffffffffffffffffffffffff16815260200190815260200160002060008873ffffffffffffffffffffffffffffffffffffffff1673ffffffffffffffffffffffffffffffffffffffff168152602001908152602001600020546104e391906114ad565b6108e8565b6001905092915050565b6000603360008373ffffffffffffffffffffffffffffffffffffffff1673ffffffffffffffffffffffffffffffffffffffff168152602001908152602001600020549050919050565b600060019054906101000a900460ff166105635760008054906101000a900460ff161561056c565b61056b610d37565b5b6105ab576040517f08c379a00000000000000000000000000000000000000000000000000000000081526004016105a290611575565b60405180910390fd5b60008060019054906101000a900460ff1615905080156105fb576001600060016101000a81548160ff02191690831515021790555060016000806101000a81548160ff0219169083151502179055505b61066f6040518060400160405280600981526020017f54657374546f6b656e00000000000000000000000000000000000000000000008152506040518060400160405280600481526020017f5445535400000000000000000000000000000000000000000000000000000000815250610d48565b61069a3361067b61043d565b600a61068791906116c8565b620186a06106959190611713565b610dad565b80156106bb5760008060016101000a81548160ff0219169083151502179055505b50565b6060603780546106cd906113ba565b80601f01602080910402602001604051908101604052809291908181526020018280546106f9906113ba565b80156107465780601f1061071b57610100808354040283529160200191610746565b820191906000526020600020905b81548152906001019060200180831161072957829003601f168201915b5050505050905090565b6000806034600061075f6108e0565b73ffffffffffffffffffffffffffffffffffffffff1673ffffffffffffffffffffffffffffffffffffffff16815260200190815260200160002060008573ffffffffffffffffffffffffffffffffffffffff1673ffffffffffffffffffffffffffffffffffffffff1681526020019081526020016000205490508281101561081c576040517f08c379a0000000000000000000000000000000000000000000000000000000008152600401610813906117df565b60405180910390fd5b6108306108276108e0565b858584036108e8565b600191505092915050565b600061084f6108486108e0565b8484610ab3565b6001905092915050565b6000603460008473ffffffffffffffffffffffffffffffffffffffff1673ffffffffffffffffffffffffffffffffffffffff16815260200190815260200160002060008373ffffffffffffffffffffffffffffffffffffffff1673ffffffffffffffffffffffffffffffffffffffff16815260200190815260200160002054905092915050565b600033905090565b600073ffffffffffffffffffffffffffffffffffffffff168373ffffffffffffffffffffffffffffffffffffffff161415610958576040517f08c379a000000000000000000000000000000000000000000000000000000000815260040161094f90611871565b60405180910390fd5b600073ffffffffffffffffffffffffffffffffffffffff168273ffffffffffffffffffffffffffffffffffffffff1614156109c8576040517f08c379a00000000000000000000000000000000000000000000000000000000081526004016109bf90611903565b60405180910390fd5b80603460008573ffffffffffffffffffffffffffffffffffffffff1673ffffffffffffffffffffffffffffffffffffffff16815260200190815260200160002060008473ffffffffffffffffffffffffffffffffffffffff1673ffffffffffffffffffffffffffffffffffffffff168152602001908152602001600020819055508173ffffffffffffffffffffffffffffffffffffffff168373ffffffffffffffffffffffffffffffffffffffff167f8c5be1e5ebec7d5bd14f71427d1e84f3dd0314c0f7b2291e5b200ac8c7c3b92583604051610aa69190611279565b60405180910390a3505050565b600073ffffffffffffffffffffffffffffffffffffffff168373ffffffffffffffffffffffffffffffffffffffff161415610b23576040517f08c379a0000000000000000000000000000000000000000000000000000000008152600401610b1a90611995565b60405180910390fd5b600073ffffffffffffffffffffffffffffffffffffffff168273ffffffffffffffffffffffffffffffffffffffff161415610b93576040517f08c379a0000000000000000000000000000000000000000000000000000000008152600401610b8a90611a27565b60405180910390fd5b610b9e838383610f0e565b6000603360008573ffffffffffffffffffffffffffffffffffffffff1673ffffffffffffffffffffffffffffffffffffffff16815260200190815260200160002054905081811015610c25576040517f08c379a0000000000000000000000000000000000000000000000000000000008152600401610c1c90611ab9565b60405180910390fd5b818103603360008673ffffffffffffffffffffffffffffffffffffffff1673ffffffffffffffffffffffffffffffffffffffff1681526020019081526020016000208190555081603360008573ffffffffffffffffffffffffffffffffffffffff1673ffffffffffffffffffffffffffffffffffffffff1681526020019081526020016000206000828254610cba91906114ad565b925050819055508273ffffffffffffffffffffffffffffffffffffffff168473ffffffffffffffffffffffffffffffffffffffff167fddf252ad1be2c89b69c2b068fc378daa952ba7f163c4a11628f55a4df523b3ef84604051610d1e9190611279565b60405180910390a3610d31848484610f13565b50505050565b6000610d4230610f18565b15905090565b600060019054906101000a900460ff16610d97576040517f08c379a0000000000000000000000000000000000000000000000000000000008152600401610d8e90611b4b565b60405180910390fd5b610d9f610f2b565b610da98282610f7c565b5050565b600073ffffffffffffffffffffffffffffffffffffffff168273ffffffffffffffffffffffffffffffffffffffff161415610e1d576040517f08c379a0000000000000000000000000000000000000000000000000000000008152600401610e1490611bb7565b60405180910390fd5b610e2960008383610f0e565b8060356000828254610e3b91906114ad565b9250508190555080603360008473ffffffffffffffffffffffffffffffffffffffff1673ffffffffffffffffffffffffffffffffffffffff1681526020019081526020016000206000828254610e9191906114ad565b925050819055508173ffffffffffffffffffffffffffffffffffffffff16600073ffffffffffffffffffffffffffffffffffffffff167fddf252ad1be2c89b69c2b068fc378daa952ba7f163c4a11628f55a4df523b3ef83604051610ef69190611279565b60405180910390a3610f0a60008383610f13565b5050565b505050565b505050565b600080823b905060008111915050919050565b600060019054906101000a900460ff16610f7a576040517f08c379a0000000000000000000000000000000000000000000000000000000008152600401610f7190611b4b565b60405180910390fd5b565b600060019054906101000a900460ff16610fcb576040517f08c379a0000000000000000000000000000000000000000000000000000000008152600401610fc290611b4b565b60405180910390fd5b8160369080519060200190610fe1929190610ffd565b508060379080519060200190610ff8929190610ffd565b505050565b828054611009906113ba565b90600052602060002090601f01602090048101928261102b5760008555611072565b82601f1061104457805160ff1916838001178555611072565b82800160010185558215611072579182015b82811115611071578251825591602001919060010190611056565b5b50905061107f9190611083565b5090565b5b8082111561109c576000816000905550600101611084565b5090565b600081519050919050565b600082825260208201905092915050565b60005b838110156110da5780820151818401526020810190506110bf565b838111156110e9576000848401525b50505050565b6000601f19601f8301169050919050565b600061110b826110a0565b61111581856110ab565b93506111258185602086016110bc565b61112e816110ef565b840191505092915050565b600060208201905081810360008301526111538184611100565b905092915050565b600080fd5b600073ffffffffffffffffffffffffffffffffffffffff82169050919050565b600061118b82611160565b9050919050565b61119b81611180565b81146111a657600080fd5b50565b6000813590506111b881611192565b92915050565b6000819050919050565b6111d1816111be565b81146111dc57600080fd5b50565b6000813590506111ee816111c8565b92915050565b6000806040838503121561120b5761120a61115b565b5b6000611219858286016111a9565b925050602061122a858286016111df565b9150509250929050565b60008115159050919050565b61124981611234565b82525050565b60006020820190506112646000830184611240565b92915050565b611273816111be565b82525050565b600060208201905061128e600083018461126a565b92915050565b6000806000606084860312156112ad576112ac61115b565b5b60006112bb868287016111a9565b93505060206112cc868287016111a9565b92505060406112dd868287016111df565b9150509250925092565b600060ff82169050919050565b6112fd816112e7565b82525050565b600060208201905061131860008301846112f4565b92915050565b6000602082840312156113345761133361115b565b5b6000611342848285016111a9565b91505092915050565b600080604083850312156113625761136161115b565b5b6000611370858286016111a9565b9250506020611381858286016111a9565b9150509250929050565b7f4e487b7100000000000000000000000000000000000000000000000000000000600052602260045260246000fd5b600060028204905060018216806113d257607f821691505b602082108114156113e6576113e561138b565b5b50919050565b7f45524332303a207472616e7366657220616d6f756e742065786365656473206160008201527f6c6c6f77616e6365000000000000000000000000000000000000000000000000602082015250565b60006114486028836110ab565b9150611453826113ec565b604082019050919050565b600060208201905081810360008301526114778161143b565b9050919050565b7f4e487b7100000000000000000000000000000000000000000000000000000000600052601160045260246000fd5b60006114b8826111be565b91506114c3836111be565b9250827fffffffffffffffffffffffffffffffffffffffffffffffffffffffffffffffff038211156114f8576114f761147e565b5b828201905092915050565b7f496e697469616c697a61626c653a20636f6e747261637420697320616c72656160008201527f647920696e697469616c697a6564000000000000000000000000000000000000602082015250565b600061155f602e836110ab565b915061156a82611503565b604082019050919050565b6000602082019050818103600083015261158e81611552565b9050919050565b60008160011c9050919050565b6000808291508390505b60018511156115ec578086048111156115c8576115c761147e565b5b60018516156115d75780820291505b80810290506115e585611595565b94506115ac565b94509492505050565b60008261160557600190506116c1565b8161161357600090506116c1565b8160018114611629576002811461163357611662565b60019150506116c1565b60ff8411156116455761164461147e565b5b8360020a91508482111561165c5761165b61147e565b5b506116c1565b5060208310610133831016604e8410600b84101617156116975782820a9050838111156116925761169161147e565b5b6116c1565b6116a484848460016115a2565b925090508184048111156116bb576116ba61147e565b5b81810290505b9392505050565b60006116d3826111be565b91506116de836112e7565b925061170b7fffffffffffffffffffffffffffffffffffffffffffffffffffffffffffffffff84846115f5565b905092915050565b600061171e826111be565b9150611729836111be565b9250817fffffffffffffffffffffffffffffffffffffffffffffffffffffffffffffffff04831182151516156117625761176161147e565b5b828202905092915050565b7f45524332303a2064656372656173656420616c6c6f77616e63652062656c6f7760008201527f207a65726f000000000000000000000000000000000000000000000000000000602082015250565b60006117c96025836110ab565b91506117d48261176d565b604082019050919050565b600060208201905081810360008301526117f8816117bc565b9050919050565b7f45524332303a20617070726f76652066726f6d20746865207a65726f2061646460008201527f7265737300000000000000000000000000000000000000000000000000000000602082015250565b600061185b6024836110ab565b9150611866826117ff565b604082019050919050565b6000602082019050818103600083015261188a8161184e565b9050919050565b7f45524332303a20617070726f766520746f20746865207a65726f20616464726560008201527f7373000000000000000000000000000000000000000000000000000000000000602082015250565b60006118ed6022836110ab565b91506118f882611891565b604082019050919050565b6000602082019050818103600083015261191c816118e0565b9050919050565b7f45524332303a207472616e736665722066726f6d20746865207a65726f20616460008201527f6472657373000000000000000000000000000000000000000000000000000000602082015250565b600061197f6025836110ab565b915061198a82611923565b604082019050919050565b600060208201905081810360008301526119ae81611972565b9050919050565b7f45524332303a207472616e7366657220746f20746865207a65726f206164647260008201527f6573730000000000000000000000000000000000000000000000000000000000602082015250565b6000611a116023836110ab565b9150611a1c826119b5565b604082019050919050565b60006020820190508181036000830152611a4081611a04565b9050919050565b7f45524332303a207472616e7366657220616d6f756e742065786365656473206260008201527f616c616e63650000000000000000000000000000000000000000000000000000602082015250565b6000611aa36026836110ab565b9150611aae82611a47565b604082019050919050565b60006020820190508181036000830152611ad281611a96565b9050919050565b7f496e697469616c697a61626c653a20636f6e7472616374206973206e6f74206960008201527f6e697469616c697a696e67000000000000000000000000000000000000000000602082015250565b6000611b35602b836110ab565b9150611b4082611ad9565b604082019050919050565b60006020820190508181036000830152611b6481611b28565b9050919050565b7f45524332303a206d696e7420746f20746865207a65726f206164647265737300600082015250565b6000611ba1601f836110ab565b9150611bac82611b6b565b602082019050919050565b60006020820190508181036000830152611bd081611b94565b905091905056fea264697066735822122042c3d510c796f6e17cdae17b917991315c330cdbdad0a59a1594a388ef71b48964736f6c63430008090033",
  "linkReferences": {},
  "deployedLinkReferences": {}
}