{
  "_format": "hh-sol-artifact-1",
  "contractName": "TestNFT",
  "sourceName": "contracts/TestNFT.sol",
  "abi": [
    {
      "anonymous": false,
      "inputs": [
        {
          "indexed": true,
          "internalType": "address",
          "name": "owner",
          "type": "address"
        },
        {
          "indexed": true,
          "internalType": "address",
          "name": "approved",
          "type": "address"
        },
        {
          "indexed": true,
          "internalType": "uint256",
          "name": "tokenId",
          "type": "uint256"
        }
      ],
      "name": "Approval",
      "type": "event"
    },
    {
      "anonymous": false,
      "inputs": [
        {
          "indexed": true,
          "internalType": "address",
          "name": "owner",
          "type": "address"
        },
        {
          "indexed": true,
          "internalType": "address",
          "name": "operator",
          "type": "address"
        },
        {
          "indexed": false,
          "internalType": "bool",
          "name": "approved",
          "type": "bool"
        }
      ],
      "name": "ApprovalForAll",
      "type": "event"
    },
    {
      "anonymous": false,
      "inputs": [
        {
          "indexed": true,
          "internalType": "address",
          "name": "previousOwner",
          "type": "address"
        },
        {
          "indexed": true,
          "internalType": "address",
          "name": "newOwner",
          "type": "address"
        }
      ],
      "name": "OwnershipTransferred",
      "type": "event"
    },
    {
      "anonymous": false,
      "inputs": [
        {
          "indexed": true,
          "internalType": "address",
          "name": "from",
          "type": "address"
        },
        {
          "indexed": true,
          "internalType": "address",
          "name": "to",
          "type": "address"
        },
        {
          "indexed": true,
          "internalType": "uint256",
          "name": "tokenId",
          "type": "uint256"
        }
      ],
      "name": "Transfer",
      "type": "event"
    },
    {
      "inputs": [
        {
          "internalType": "address",
          "name": "to",
          "type": "address"
        },
        {
          "internalType": "uint256",
          "name": "tokenId",
          "type": "uint256"
        }
      ],
      "name": "approve",
      "outputs": [],
      "stateMutability": "nonpayable",
      "type": "function"
    },
    {
      "inputs": [
        {
          "internalType": "address",
          "name": "owner",
          "type": "address"
        }
      ],
      "name": "balanceOf",
      "outputs": [
        {
          "internalType": "uint256",
          "name": "",
          "type": "uint256"
        }
      ],
      "stateMutability": "view",
      "type": "function"
    },
    {
      "inputs": [
        {
          "internalType": "uint256",
          "name": "tokenId",
          "type": "uint256"
        }
      ],
      "name": "burn",
      "outputs": [],
      "stateMutability": "nonpayable",
      "type": "function"
    },
    {
      "inputs": [
        {
          "internalType": "uint256",
          "name": "tokenId",
          "type": "uint256"
        }
      ],
      "name": "getApproved",
      "outputs": [
        {
          "internalType": "address",
          "name": "",
          "type": "address"
        }
      ],
      "stateMutability": "view",
      "type": "function"
    },
    {
      "inputs": [],
      "name": "initialize",
      "outputs": [],
      "stateMutability": "nonpayable",
      "type": "function"
    },
    {
      "inputs": [
        {
          "internalType": "address",
          "name": "owner",
          "type": "address"
        },
        {
          "internalType": "address",
          "name": "operator",
          "type": "address"
        }
      ],
      "name": "isApprovedForAll",
      "outputs": [
        {
          "internalType": "bool",
          "name": "",
          "type": "bool"
        }
      ],
      "stateMutability": "view",
      "type": "function"
    },
    {
      "inputs": [],
      "name": "name",
      "outputs": [
        {
          "internalType": "string",
          "name": "",
          "type": "string"
        }
      ],
      "stateMutability": "view",
      "type": "function"
    },
    {
      "inputs": [],
      "name": "owner",
      "outputs": [
        {
          "internalType": "address",
          "name": "",
          "type": "address"
        }
      ],
      "stateMutability": "view",
      "type": "function"
    },
    {
      "inputs": [
        {
          "internalType": "uint256",
          "name": "tokenId",
          "type": "uint256"
        }
      ],
      "name": "ownerOf",
      "outputs": [
        {
          "internalType": "address",
          "name": "",
          "type": "address"
        }
      ],
      "stateMutability": "view",
      "type": "function"
    },
    {
      "inputs": [],
      "name": "renounceOwnership",
      "outputs": [],
      "stateMutability": "nonpayable",
      "type": "function"
    },
    {
      "inputs": [
        {
          "internalType": "address",
          "name": "to",
          "type": "address"
        },
        {
          "internalType": "string",
          "name": "uri",
          "type": "string"
        }
      ],
      "name": "safeMint",
      "outputs": [],
      "stateMutability": "nonpayable",
      "type": "function"
    },
    {
      "inputs": [
        {
          "internalType": "address",
          "name": "from",
          "type": "address"
        },
        {
          "internalType": "address",
          "name": "to",
          "type": "address"
        },
        {
          "internalType": "uint256",
          "name": "tokenId",
          "type": "uint256"
        }
      ],
      "name": "safeTransferFrom",
      "outputs": [],
      "stateMutability": "nonpayable",
      "type": "function"
    },
    {
      "inputs": [
        {
          "internalType": "address",
          "name": "from",
          "type": "address"
        },
        {
          "internalType": "address",
          "name": "to",
          "type": "address"
        },
        {
          "internalType": "uint256",
          "name": "tokenId",
          "type": "uint256"
        },
        {
          "internalType": "bytes",
          "name": "_data",
          "type": "bytes"
        }
      ],
      "name": "safeTransferFrom",
      "outputs": [],
      "stateMutability": "nonpayable",
      "type": "function"
    },
    {
      "inputs": [
        {
          "internalType": "address",
          "name": "operator",
          "type": "address"
        },
        {
          "internalType": "bool",
          "name": "approved",
          "type": "bool"
        }
      ],
      "name": "setApprovalForAll",
      "outputs": [],
      "stateMutability": "nonpayable",
      "type": "function"
    },
    {
      "inputs": [
        {
          "internalType": "bytes4",
          "name": "interfaceId",
          "type": "bytes4"
        }
      ],
      "name": "supportsInterface",
      "outputs": [
        {
          "internalType": "bool",
          "name": "",
          "type": "bool"
        }
      ],
      "stateMutability": "view",
      "type": "function"
    },
    {
      "inputs": [],
      "name": "symbol",
      "outputs": [
        {
          "internalType": "string",
          "name": "",
          "type": "string"
        }
      ],
      "stateMutability": "view",
      "type": "function"
    },
    {
      "inputs": [
        {
          "internalType": "uint256",
          "name": "tokenId",
          "type": "uint256"
        }
      ],
      "name": "tokenURI",
      "outputs": [
        {
          "internalType": "string",
          "name": "",
          "type": "string"
        }
      ],
      "stateMutability": "view",
      "type": "function"
    },
    {
      "inputs": [
        {
          "internalType": "address",
          "name": "from",
          "type": "address"
        },
        {
          "internalType": "address",
          "name": "to",
          "type": "address"
        },
        {
          "internalType": "uint256",
          "name": "tokenId",
          "type": "uint256"
        }
      ],
      "name": "transferFrom",
      "outputs": [],
      "stateMutability": "nonpayable",
      "type": "function"
    },
    {
      "inputs": [
        {
          "internalType": "address",
          "name": "newOwner",
          "type": "address"
        }
      ],
      "name": "transferOwnership",
      "outputs": [],
      "stateMutability": "nonpayable",
      "type": "function"
    }
  ],
  "bytecode": "0x608060405234801561001057600080fd5b506139ab806100206000396000f3fe608060405234801561001057600080fd5b50600436106101215760003560e01c8063715018a6116100ad578063b88d4fde11610071578063b88d4fde146102e0578063c87b56dd146102fc578063d204c45e1461032c578063e985e9c514610348578063f2fde38b1461037857610121565b8063715018a6146102745780638129fc1c1461027e5780638da5cb5b1461028857806395d89b41146102a6578063a22cb465146102c457610121565b806323b872dd116100f457806323b872dd146101c057806342842e0e146101dc57806342966c68146101f85780636352211e1461021457806370a082311461024457610121565b806301ffc9a71461012657806306fdde0314610156578063081812fc14610174578063095ea7b3146101a4575b600080fd5b610140600480360381019061013b9190612459565b610394565b60405161014d91906124a1565b60405180910390f35b61015e610476565b60405161016b9190612555565b60405180910390f35b61018e600480360381019061018991906125ad565b610508565b60405161019b919061261b565b60405180910390f35b6101be60048036038101906101b99190612662565b61058d565b005b6101da60048036038101906101d591906126a2565b6106a5565b005b6101f660048036038101906101f191906126a2565b610705565b005b610212600480360381019061020d91906125ad565b610725565b005b61022e600480360381019061022991906125ad565b610781565b60405161023b919061261b565b60405180910390f35b61025e600480360381019061025991906126f5565b610833565b60405161026b9190612731565b60405180910390f35b61027c6108eb565b005b610286610973565b005b610290610ae3565b60405161029d919061261b565b60405180910390f35b6102ae610b0d565b6040516102bb9190612555565b60405180910390f35b6102de60048036038101906102d99190612778565b610b9f565b005b6102fa60048036038101906102f591906128ed565b610bb5565b005b610316600480360381019061031191906125ad565b610c17565b6040516103239190612555565b60405180910390f35b61034660048036038101906103419190612a11565b610c29565b005b610362600480360381019061035d9190612a6d565b610cd8565b60405161036f91906124a1565b60405180910390f35b610392600480360381019061038d91906126f5565b610d6c565b005b60007f80ac58cd000000000000000000000000000000000000000000000000000000007bffffffffffffffffffffffffffffffffffffffffffffffffffffffff1916827bffffffffffffffffffffffffffffffffffffffffffffffffffffffff1916148061045f57507f5b5e139f000000000000000000000000000000000000000000000000000000007bffffffffffffffffffffffffffffffffffffffffffffffffffffffff1916827bffffffffffffffffffffffffffffffffffffffffffffffffffffffff1916145b8061046f575061046e82610e64565b5b9050919050565b60606065805461048590612adc565b80601f01602080910402602001604051908101604052809291908181526020018280546104b190612adc565b80156104fe5780601f106104d3576101008083540402835291602001916104fe565b820191906000526020600020905b8154815290600101906020018083116104e157829003601f168201915b5050505050905090565b600061051382610ece565b610552576040517f08c379a000000000000000000000000000000000000000000000000000000000815260040161054990612b80565b60405180910390fd5b6069600083815260200190815260200160002060009054906101000a900473ffffffffffffffffffffffffffffffffffffffff169050919050565b600061059882610781565b90508073ffffffffffffffffffffffffffffffffffffffff168373ffffffffffffffffffffffffffffffffffffffff161415610609576040517f08c379a000000000000000000000000000000000000000000000000000000000815260040161060090612c12565b60405180910390fd5b8073ffffffffffffffffffffffffffffffffffffffff16610628610f3a565b73ffffffffffffffffffffffffffffffffffffffff161480610657575061065681610651610f3a565b610cd8565b5b610696576040517f08c379a000000000000000000000000000000000000000000000000000000000815260040161068d90612ca4565b60405180910390fd5b6106a08383610f42565b505050565b6106b66106b0610f3a565b82610ffb565b6106f5576040517f08c379a00000000000000000000000000000000000000000000000000000000081526004016106ec90612d36565b60405180910390fd5b6107008383836110d9565b505050565b61072083838360405180602001604052806000815250610bb5565b505050565b610736610730610f3a565b82610ffb565b610775576040517f08c379a000000000000000000000000000000000000000000000000000000000815260040161076c90612dc8565b60405180910390fd5b61077e81611335565b50565b6000806067600084815260200190815260200160002060009054906101000a900473ffffffffffffffffffffffffffffffffffffffff169050600073ffffffffffffffffffffffffffffffffffffffff168173ffffffffffffffffffffffffffffffffffffffff16141561082a576040517f08c379a000000000000000000000000000000000000000000000000000000000815260040161082190612e5a565b60405180910390fd5b80915050919050565b60008073ffffffffffffffffffffffffffffffffffffffff168273ffffffffffffffffffffffffffffffffffffffff1614156108a4576040517f08c379a000000000000000000000000000000000000000000000000000000000815260040161089b90612eec565b60405180910390fd5b606860008373ffffffffffffffffffffffffffffffffffffffff1673ffffffffffffffffffffffffffffffffffffffff168152602001908152602001600020549050919050565b6108f3610f3a565b73ffffffffffffffffffffffffffffffffffffffff16610911610ae3565b73ffffffffffffffffffffffffffffffffffffffff1614610967576040517f08c379a000000000000000000000000000000000000000000000000000000000815260040161095e90612f58565b60405180910390fd5b6109716000611341565b565b600060019054906101000a900460ff1661099b5760008054906101000a900460ff16156109a4565b6109a3611407565b5b6109e3576040517f08c379a00000000000000000000000000000000000000000000000000000000081526004016109da90612fea565b60405180910390fd5b60008060019054906101000a900460ff161590508015610a33576001600060016101000a81548160ff02191690831515021790555060016000806101000a81548160ff0219169083151502179055505b610aa76040518060400160405280600781526020017f546573744e4654000000000000000000000000000000000000000000000000008152506040518060400160405280600381526020017f4e46540000000000000000000000000000000000000000000000000000000000815250611418565b610aaf611485565b610ab76114ee565b610abf611557565b8015610ae05760008060016101000a81548160ff0219169083151502179055505b50565b600060fb60009054906101000a900473ffffffffffffffffffffffffffffffffffffffff16905090565b606060668054610b1c90612adc565b80601f0160208091040260200160405190810160405280929190818152602001828054610b4890612adc565b8015610b955780601f10610b6a57610100808354040283529160200191610b95565b820191906000526020600020905b815481529060010190602001808311610b7857829003601f168201915b5050505050905090565b610bb1610baa610f3a565b83836115b8565b5050565b610bc6610bc0610f3a565b83610ffb565b610c05576040517f08c379a0000000000000000000000000000000000000000000000000000000008152600401610bfc90612d36565b60405180910390fd5b610c1184848484611725565b50505050565b6060610c2282611781565b9050919050565b610c31610f3a565b73ffffffffffffffffffffffffffffffffffffffff16610c4f610ae3565b73ffffffffffffffffffffffffffffffffffffffff1614610ca5576040517f08c379a0000000000000000000000000000000000000000000000000000000008152600401610c9c90612f58565b60405180910390fd5b6000610cb261012d6118d3565b9050610cbf61012d6118e1565b610cc983826118f7565b610cd38183611915565b505050565b6000606a60008473ffffffffffffffffffffffffffffffffffffffff1673ffffffffffffffffffffffffffffffffffffffff16815260200190815260200160002060008373ffffffffffffffffffffffffffffffffffffffff1673ffffffffffffffffffffffffffffffffffffffff16815260200190815260200160002060009054906101000a900460ff16905092915050565b610d74610f3a565b73ffffffffffffffffffffffffffffffffffffffff16610d92610ae3565b73ffffffffffffffffffffffffffffffffffffffff1614610de8576040517f08c379a0000000000000000000000000000000000000000000000000000000008152600401610ddf90612f58565b60405180910390fd5b600073ffffffffffffffffffffffffffffffffffffffff168173ffffffffffffffffffffffffffffffffffffffff161415610e58576040517f08c379a0000000000000000000000000000000000000000000000000000000008152600401610e4f9061307c565b60405180910390fd5b610e6181611341565b50565b60007f01ffc9a7000000000000000000000000000000000000000000000000000000007bffffffffffffffffffffffffffffffffffffffffffffffffffffffff1916827bffffffffffffffffffffffffffffffffffffffffffffffffffffffff1916149050919050565b60008073ffffffffffffffffffffffffffffffffffffffff166067600084815260200190815260200160002060009054906101000a900473ffffffffffffffffffffffffffffffffffffffff1673ffffffffffffffffffffffffffffffffffffffff1614159050919050565b600033905090565b816069600083815260200190815260200160002060006101000a81548173ffffffffffffffffffffffffffffffffffffffff021916908373ffffffffffffffffffffffffffffffffffffffff160217905550808273ffffffffffffffffffffffffffffffffffffffff16610fb583610781565b73ffffffffffffffffffffffffffffffffffffffff167f8c5be1e5ebec7d5bd14f71427d1e84f3dd0314c0f7b2291e5b200ac8c7c3b92560405160405180910390a45050565b600061100682610ece565b611045576040517f08c379a000000000000000000000000000000000000000000000000000000000815260040161103c9061310e565b60405180910390fd5b600061105083610781565b90508073ffffffffffffffffffffffffffffffffffffffff168473ffffffffffffffffffffffffffffffffffffffff1614806110bf57508373ffffffffffffffffffffffffffffffffffffffff166110a784610508565b73ffffffffffffffffffffffffffffffffffffffff16145b806110d057506110cf8185610cd8565b5b91505092915050565b8273ffffffffffffffffffffffffffffffffffffffff166110f982610781565b73ffffffffffffffffffffffffffffffffffffffff161461114f576040517f08c379a0000000000000000000000000000000000000000000000000000000008152600401611146906131a0565b60405180910390fd5b600073ffffffffffffffffffffffffffffffffffffffff168273ffffffffffffffffffffffffffffffffffffffff1614156111bf576040517f08c379a00000000000000000000000000000000000000000000000000000000081526004016111b690613232565b60405180910390fd5b6111ca838383611989565b6111d5600082610f42565b6001606860008573ffffffffffffffffffffffffffffffffffffffff1673ffffffffffffffffffffffffffffffffffffffff16815260200190815260200160002060008282546112259190613281565b925050819055506001606860008473ffffffffffffffffffffffffffffffffffffffff1673ffffffffffffffffffffffffffffffffffffffff168152602001908152602001600020600082825461127c91906132b5565b92505081905550816067600083815260200190815260200160002060006101000a81548173ffffffffffffffffffffffffffffffffffffffff021916908373ffffffffffffffffffffffffffffffffffffffff160217905550808273ffffffffffffffffffffffffffffffffffffffff168473ffffffffffffffffffffffffffffffffffffffff167fddf252ad1be2c89b69c2b068fc378daa952ba7f163c4a11628f55a4df523b3ef60405160405180910390a4505050565b61133e8161198e565b50565b600060fb60009054906101000a900473ffffffffffffffffffffffffffffffffffffffff1690508160fb60006101000a81548173ffffffffffffffffffffffffffffffffffffffff021916908373ffffffffffffffffffffffffffffffffffffffff1602179055508173ffffffffffffffffffffffffffffffffffffffff168173ffffffffffffffffffffffffffffffffffffffff167f8be0079c531659141344cd1fd0a4f28419497f9722a3daafe3b4186f6b6457e060405160405180910390a35050565b6000611412306119e1565b15905090565b600060019054906101000a900460ff16611467576040517f08c379a000000000000000000000000000000000000000000000000000000000815260040161145e9061337d565b60405180910390fd5b61146f6119f4565b611477611a45565b6114818282611a96565b5050565b600060019054906101000a900460ff166114d4576040517f08c379a00000000000000000000000000000000000000000000000000000000081526004016114cb9061337d565b60405180910390fd5b6114dc6119f4565b6114e4611a45565b6114ec611b17565b565b600060019054906101000a900460ff1661153d576040517f08c379a00000000000000000000000000000000000000000000000000000000081526004016115349061337d565b60405180910390fd5b6115456119f4565b61154d611a45565b611555611b68565b565b600060019054906101000a900460ff166115a6576040517f08c379a000000000000000000000000000000000000000000000000000000000815260040161159d9061337d565b60405180910390fd5b6115ae6119f4565b6115b6611bb9565b565b8173ffffffffffffffffffffffffffffffffffffffff168373ffffffffffffffffffffffffffffffffffffffff161415611627576040517f08c379a000000000000000000000000000000000000000000000000000000000815260040161161e906133e9565b60405180910390fd5b80606a60008573ffffffffffffffffffffffffffffffffffffffff1673ffffffffffffffffffffffffffffffffffffffff16815260200190815260200160002060008473ffffffffffffffffffffffffffffffffffffffff1673ffffffffffffffffffffffffffffffffffffffff16815260200190815260200160002060006101000a81548160ff0219169083151502179055508173ffffffffffffffffffffffffffffffffffffffff168373ffffffffffffffffffffffffffffffffffffffff167f17307eab39ab6107e8899845ad3d59bd9653f200f220920489ca2b5937696c318360405161171891906124a1565b60405180910390a3505050565b6117308484846110d9565b61173c84848484611c1a565b61177b576040517f08c379a00000000000000000000000000000000000000000000000000000000081526004016117729061347b565b60405180910390fd5b50505050565b606061178c82610ece565b6117cb576040517f08c379a00000000000000000000000000000000000000000000000000000000081526004016117c29061350d565b60405180910390fd5b60006097600084815260200190815260200160002080546117eb90612adc565b80601f016020809104026020016040519081016040528092919081815260200182805461181790612adc565b80156118645780601f1061183957610100808354040283529160200191611864565b820191906000526020600020905b81548152906001019060200180831161184757829003601f168201915b505050505090506000611875611db1565b905060008151141561188b5781925050506118ce565b6000825111156118c05780826040516020016118a8929190613569565b604051602081830303815290604052925050506118ce565b6118c984611dc8565b925050505b919050565b600081600001549050919050565b6001816000016000828254019250508190555050565b611911828260405180602001604052806000815250611e6f565b5050565b61191e82610ece565b61195d576040517f08c379a0000000000000000000000000000000000000000000000000000000008152600401611954906135ff565b60405180910390fd5b8060976000848152602001908152602001600020908051906020019061198492919061230a565b505050565b505050565b61199781611eca565b60006097600083815260200190815260200160002080546119b790612adc565b9050146119de576097600082815260200190815260200160002060006119dd9190612390565b5b50565b600080823b905060008111915050919050565b600060019054906101000a900460ff16611a43576040517f08c379a0000000000000000000000000000000000000000000000000000000008152600401611a3a9061337d565b60405180910390fd5b565b600060019054906101000a900460ff16611a94576040517f08c379a0000000000000000000000000000000000000000000000000000000008152600401611a8b9061337d565b60405180910390fd5b565b600060019054906101000a900460ff16611ae5576040517f08c379a0000000000000000000000000000000000000000000000000000000008152600401611adc9061337d565b60405180910390fd5b8160659080519060200190611afb92919061230a565b508060669080519060200190611b1292919061230a565b505050565b600060019054906101000a900460ff16611b66576040517f08c379a0000000000000000000000000000000000000000000000000000000008152600401611b5d9061337d565b60405180910390fd5b565b600060019054906101000a900460ff16611bb7576040517f08c379a0000000000000000000000000000000000000000000000000000000008152600401611bae9061337d565b60405180910390fd5b565b600060019054906101000a900460ff16611c08576040517f08c379a0000000000000000000000000000000000000000000000000000000008152600401611bff9061337d565b60405180910390fd5b611c18611c13610f3a565b611341565b565b6000611c3b8473ffffffffffffffffffffffffffffffffffffffff166119e1565b15611da4578373ffffffffffffffffffffffffffffffffffffffff1663150b7a02611c64610f3a565b8786866040518563ffffffff1660e01b8152600401611c869493929190613674565b602060405180830381600087803b158015611ca057600080fd5b505af1925050508015611cd157506040513d601f19601f82011682018060405250810190611cce91906136d5565b60015b611d54573d8060008114611d01576040519150601f19603f3d011682016040523d82523d6000602084013e611d06565b606091505b50600081511415611d4c576040517f08c379a0000000000000000000000000000000000000000000000000000000008152600401611d439061347b565b60405180910390fd5b805181602001fd5b63150b7a0260e01b7bffffffffffffffffffffffffffffffffffffffffffffffffffffffff1916817bffffffffffffffffffffffffffffffffffffffffffffffffffffffff191614915050611da9565b600190505b949350505050565b606060405180602001604052806000815250905090565b6060611dd382610ece565b611e12576040517f08c379a0000000000000000000000000000000000000000000000000000000008152600401611e0990613774565b60405180910390fd5b6000611e1c611db1565b90506000815111611e3c5760405180602001604052806000815250611e67565b80611e4684611fdb565b604051602001611e57929190613569565b6040516020818303038152906040525b915050919050565b611e79838361213c565b611e866000848484611c1a565b611ec5576040517f08c379a0000000000000000000000000000000000000000000000000000000008152600401611ebc9061347b565b60405180910390fd5b505050565b6000611ed582610781565b9050611ee381600084611989565b611eee600083610f42565b6001606860008373ffffffffffffffffffffffffffffffffffffffff1673ffffffffffffffffffffffffffffffffffffffff1681526020019081526020016000206000828254611f3e9190613281565b925050819055506067600083815260200190815260200160002060006101000a81549073ffffffffffffffffffffffffffffffffffffffff021916905581600073ffffffffffffffffffffffffffffffffffffffff168273ffffffffffffffffffffffffffffffffffffffff167fddf252ad1be2c89b69c2b068fc378daa952ba7f163c4a11628f55a4df523b3ef60405160405180910390a45050565b60606000821415612023576040518060400160405280600181526020017f30000000000000000000000000000000000000000000000000000000000000008152509050612137565b600082905060005b6000821461205557808061203e90613794565b915050600a8261204e919061380c565b915061202b565b60008167ffffffffffffffff811115612071576120706127c2565b5b6040519080825280601f01601f1916602001820160405280156120a35781602001600182028036833780820191505090505b5090505b60008514612130576001826120bc9190613281565b9150600a856120cb919061383d565b60306120d791906132b5565b60f81b8183815181106120ed576120ec61386e565b5b60200101907effffffffffffffffffffffffffffffffffffffffffffffffffffffffffffff1916908160001a905350600a85612129919061380c565b94506120a7565b8093505050505b919050565b600073ffffffffffffffffffffffffffffffffffffffff168273ffffffffffffffffffffffffffffffffffffffff1614156121ac576040517f08c379a00000000000000000000000000000000000000000000000000000000081526004016121a3906138e9565b60405180910390fd5b6121b581610ece565b156121f5576040517f08c379a00000000000000000000000000000000000000000000000000000000081526004016121ec90613955565b60405180910390fd5b61220160008383611989565b6001606860008473ffffffffffffffffffffffffffffffffffffffff1673ffffffffffffffffffffffffffffffffffffffff168152602001908152602001600020600082825461225191906132b5565b92505081905550816067600083815260200190815260200160002060006101000a81548173ffffffffffffffffffffffffffffffffffffffff021916908373ffffffffffffffffffffffffffffffffffffffff160217905550808273ffffffffffffffffffffffffffffffffffffffff16600073ffffffffffffffffffffffffffffffffffffffff167fddf252ad1be2c89b69c2b068fc378daa952ba7f163c4a11628f55a4df523b3ef60405160405180910390a45050565b82805461231690612adc565b90600052602060002090601f016020900481019282612338576000855561237f565b82601f1061235157805160ff191683800117855561237f565b8280016001018555821561237f579182015b8281111561237e578251825591602001919060010190612363565b5b50905061238c91906123d0565b5090565b50805461239c90612adc565b6000825580601f106123ae57506123cd565b601f0160209004906000526020600020908101906123cc91906123d0565b5b50565b5b808211156123e95760008160009055506001016123d1565b5090565b6000604051905090565b600080fd5b600080fd5b60007fffffffff0000000000000000000000000000000000000000000000000000000082169050919050565b61243681612401565b811461244157600080fd5b50565b6000813590506124538161242d565b92915050565b60006020828403121561246f5761246e6123f7565b5b600061247d84828501612444565b91505092915050565b60008115159050919050565b61249b81612486565b82525050565b60006020820190506124b66000830184612492565b92915050565b600081519050919050565b600082825260208201905092915050565b60005b838110156124f65780820151818401526020810190506124db565b83811115612505576000848401525b50505050565b6000601f19601f8301169050919050565b6000612527826124bc565b61253181856124c7565b93506125418185602086016124d8565b61254a8161250b565b840191505092915050565b6000602082019050818103600083015261256f818461251c565b905092915050565b6000819050919050565b61258a81612577565b811461259557600080fd5b50565b6000813590506125a781612581565b92915050565b6000602082840312156125c3576125c26123f7565b5b60006125d184828501612598565b91505092915050565b600073ffffffffffffffffffffffffffffffffffffffff82169050919050565b6000612605826125da565b9050919050565b612615816125fa565b82525050565b6000602082019050612630600083018461260c565b92915050565b61263f816125fa565b811461264a57600080fd5b50565b60008135905061265c81612636565b92915050565b60008060408385031215612679576126786123f7565b5b60006126878582860161264d565b925050602061269885828601612598565b9150509250929050565b6000806000606084860312156126bb576126ba6123f7565b5b60006126c98682870161264d565b93505060206126da8682870161264d565b92505060406126eb86828701612598565b9150509250925092565b60006020828403121561270b5761270a6123f7565b5b60006127198482850161264d565b91505092915050565b61272b81612577565b82525050565b60006020820190506127466000830184612722565b92915050565b61275581612486565b811461276057600080fd5b50565b6000813590506127728161274c565b92915050565b6000806040838503121561278f5761278e6123f7565b5b600061279d8582860161264d565b92505060206127ae85828601612763565b9150509250929050565b600080fd5b600080fd5b7f4e487b7100000000000000000000000000000000000000000000000000000000600052604160045260246000fd5b6127fa8261250b565b810181811067ffffffffffffffff82111715612819576128186127c2565b5b80604052505050565b600061282c6123ed565b905061283882826127f1565b919050565b600067ffffffffffffffff821115612858576128576127c2565b5b6128618261250b565b9050602081019050919050565b82818337600083830152505050565b600061289061288b8461283d565b612822565b9050828152602081018484840111156128ac576128ab6127bd565b5b6128b784828561286e565b509392505050565b600082601f8301126128d4576128d36127b8565b5b81356128e484826020860161287d565b91505092915050565b60008060008060808587031215612907576129066123f7565b5b60006129158782880161264d565b94505060206129268782880161264d565b935050604061293787828801612598565b925050606085013567ffffffffffffffff811115612958576129576123fc565b5b612964878288016128bf565b91505092959194509250565b600067ffffffffffffffff82111561298b5761298a6127c2565b5b6129948261250b565b9050602081019050919050565b60006129b46129af84612970565b612822565b9050828152602081018484840111156129d0576129cf6127bd565b5b6129db84828561286e565b509392505050565b600082601f8301126129f8576129f76127b8565b5b8135612a088482602086016129a1565b91505092915050565b60008060408385031215612a2857612a276123f7565b5b6000612a368582860161264d565b925050602083013567ffffffffffffffff811115612a5757612a566123fc565b5b612a63858286016129e3565b9150509250929050565b60008060408385031215612a8457612a836123f7565b5b6000612a928582860161264d565b9250506020612aa38582860161264d565b9150509250929050565b7f4e487b7100000000000000000000000000000000000000000000000000000000600052602260045260246000fd5b60006002820490506001821680612af457607f821691505b60208210811415612b0857612b07612aad565b5b50919050565b7f4552433732313a20617070726f76656420717565727920666f72206e6f6e657860008201527f697374656e7420746f6b656e0000000000000000000000000000000000000000602082015250565b6000612b6a602c836124c7565b9150612b7582612b0e565b604082019050919050565b60006020820190508181036000830152612b9981612b5d565b9050919050565b7f4552433732313a20617070726f76616c20746f2063757272656e74206f776e6560008201527f7200000000000000000000000000000000000000000000000000000000000000602082015250565b6000612bfc6021836124c7565b9150612c0782612ba0565b604082019050919050565b60006020820190508181036000830152612c2b81612bef565b9050919050565b7f4552433732313a20617070726f76652063616c6c6572206973206e6f74206f7760008201527f6e6572206e6f7220617070726f76656420666f7220616c6c0000000000000000602082015250565b6000612c8e6038836124c7565b9150612c9982612c32565b604082019050919050565b60006020820190508181036000830152612cbd81612c81565b9050919050565b7f4552433732313a207472616e736665722063616c6c6572206973206e6f74206f60008201527f776e6572206e6f7220617070726f766564000000000000000000000000000000602082015250565b6000612d206031836124c7565b9150612d2b82612cc4565b604082019050919050565b60006020820190508181036000830152612d4f81612d13565b9050919050565b7f4552433732314275726e61626c653a2063616c6c6572206973206e6f74206f7760008201527f6e6572206e6f7220617070726f76656400000000000000000000000000000000602082015250565b6000612db26030836124c7565b9150612dbd82612d56565b604082019050919050565b60006020820190508181036000830152612de181612da5565b9050919050565b7f4552433732313a206f776e657220717565727920666f72206e6f6e657869737460008201527f656e7420746f6b656e0000000000000000000000000000000000000000000000602082015250565b6000612e446029836124c7565b9150612e4f82612de8565b604082019050919050565b60006020820190508181036000830152612e7381612e37565b9050919050565b7f4552433732313a2062616c616e636520717565727920666f7220746865207a6560008201527f726f206164647265737300000000000000000000000000000000000000000000602082015250565b6000612ed6602a836124c7565b9150612ee182612e7a565b604082019050919050565b60006020820190508181036000830152612f0581612ec9565b9050919050565b7f4f776e61626c653a2063616c6c6572206973206e6f7420746865206f776e6572600082015250565b6000612f426020836124c7565b9150612f4d82612f0c565b602082019050919050565b60006020820190508181036000830152612f7181612f35565b9050919050565b7f496e697469616c697a61626c653a20636f6e747261637420697320616c72656160008201527f647920696e697469616c697a6564000000000000000000000000000000000000602082015250565b6000612fd4602e836124c7565b9150612fdf82612f78565b604082019050919050565b6000602082019050818103600083015261300381612fc7565b9050919050565b7f4f776e61626c653a206e6577206f776e657220697320746865207a65726f206160008201527f6464726573730000000000000000000000000000000000000000000000000000602082015250565b60006130666026836124c7565b91506130718261300a565b604082019050919050565b6000602082019050818103600083015261309581613059565b9050919050565b7f4552433732313a206f70657261746f7220717565727920666f72206e6f6e657860008201527f697374656e7420746f6b656e0000000000000000000000000000000000000000602082015250565b60006130f8602c836124c7565b91506131038261309c565b604082019050919050565b60006020820190508181036000830152613127816130eb565b9050919050565b7f4552433732313a207472616e73666572206f6620746f6b656e2074686174206960008201527f73206e6f74206f776e0000000000000000000000000000000000000000000000602082015250565b600061318a6029836124c7565b91506131958261312e565b604082019050919050565b600060208201905081810360008301526131b98161317d565b9050919050565b7f4552433732313a207472616e7366657220746f20746865207a65726f2061646460008201527f7265737300000000000000000000000000000000000000000000000000000000602082015250565b600061321c6024836124c7565b9150613227826131c0565b604082019050919050565b6000602082019050818103600083015261324b8161320f565b9050919050565b7f4e487b7100000000000000000000000000000000000000000000000000000000600052601160045260246000fd5b600061328c82612577565b915061329783612577565b9250828210156132aa576132a9613252565b5b828203905092915050565b60006132c082612577565b91506132cb83612577565b9250827fffffffffffffffffffffffffffffffffffffffffffffffffffffffffffffffff03821115613300576132ff613252565b5b828201905092915050565b7f496e697469616c697a61626c653a20636f6e7472616374206973206e6f74206960008201527f6e697469616c697a696e67000000000000000000000000000000000000000000602082015250565b6000613367602b836124c7565b91506133728261330b565b604082019050919050565b600060208201905081810360008301526133968161335a565b9050919050565b7f4552433732313a20617070726f766520746f2063616c6c657200000000000000600082015250565b60006133d36019836124c7565b91506133de8261339d565b602082019050919050565b60006020820190508181036000830152613402816133c6565b9050919050565b7f4552433732313a207472616e7366657220746f206e6f6e20455243373231526560008201527f63656976657220696d706c656d656e7465720000000000000000000000000000602082015250565b60006134656032836124c7565b915061347082613409565b604082019050919050565b6000602082019050818103600083015261349481613458565b9050919050565b7f45524337323155524953746f726167653a2055524920717565727920666f722060008201527f6e6f6e6578697374656e7420746f6b656e000000000000000000000000000000602082015250565b60006134f76031836124c7565b91506135028261349b565b604082019050919050565b60006020820190508181036000830152613526816134ea565b9050919050565b600081905092915050565b6000613543826124bc565b61354d818561352d565b935061355d8185602086016124d8565b80840191505092915050565b60006135758285613538565b91506135818284613538565b91508190509392505050565b7f45524337323155524953746f726167653a2055524920736574206f66206e6f6e60008201527f6578697374656e7420746f6b656e000000000000000000000000000000000000602082015250565b60006135e9602e836124c7565b91506135f48261358d565b604082019050919050565b60006020820190508181036000830152613618816135dc565b9050919050565b600081519050919050565b600082825260208201905092915050565b60006136468261361f565b613650818561362a565b93506136608185602086016124d8565b6136698161250b565b840191505092915050565b6000608082019050613689600083018761260c565b613696602083018661260c565b6136a36040830185612722565b81810360608301526136b5818461363b565b905095945050505050565b6000815190506136cf8161242d565b92915050565b6000602082840312156136eb576136ea6123f7565b5b60006136f9848285016136c0565b91505092915050565b7f4552433732314d657461646174613a2055524920717565727920666f72206e6f60008201527f6e6578697374656e7420746f6b656e0000000000000000000000000000000000602082015250565b600061375e602f836124c7565b915061376982613702565b604082019050919050565b6000602082019050818103600083015261378d81613751565b9050919050565b600061379f82612577565b91507fffffffffffffffffffffffffffffffffffffffffffffffffffffffffffffffff8214156137d2576137d1613252565b5b600182019050919050565b7f4e487b7100000000000000000000000000000000000000000000000000000000600052601260045260246000fd5b600061381782612577565b915061382283612577565b925082613832576138316137dd565b5b828204905092915050565b600061384882612577565b915061385383612577565b925082613863576138626137dd565b5b828206905092915050565b7f4e487b7100000000000000000000000000000000000000000000000000000000600052603260045260246000fd5b7f4552433732313a206d696e7420746f20746865207a65726f2061646472657373600082015250565b60006138d36020836124c7565b91506138de8261389d565b602082019050919050565b60006020820190508181036000830152613902816138c6565b9050919050565b7f4552433732313a20746f6b656e20616c7265616479206d696e74656400000000600082015250565b600061393f601c836124c7565b915061394a82613909565b602082019050919050565b6000602082019050818103600083015261396e81613932565b905091905056fea26469706673582212208676094776117bdf30fe060eb046e90fbca1ad01562fd51df4bd1d31374b932564736f6c63430008090033",
  "linkReferences": {},
  "deployedLinkReferences": {}
}