{
  "_format": "hh-sol-artifact-1",
  "contractName": "PaymentSplitterUpgradeable",
  "sourceName": "@openzeppelin/contracts-upgradeable/finance/PaymentSplitterUpgradeable.sol",
  "abi": [
    {
      "anonymous": false,
      "inputs": [
        {
          "indexed": true,
          "internalType": "contract IERC20Upgradeable",
          "name": "token",
          "type": "address"
        },
        {
          "indexed": false,
          "internalType": "address",
          "name": "to",
          "type": "address"
        },
        {
          "indexed": false,
          "internalType": "uint256",
          "name": "amount",
          "type": "uint256"
        }
      ],
      "name": "ERC20PaymentReleased",
      "type": "event"
    },
    {
      "anonymous": false,
      "inputs": [
        {
          "indexed": false,
          "internalType": "address",
          "name": "account",
          "type": "address"
        },
        {
          "indexed": false,
          "internalType": "uint256",
          "name": "shares",
          "type": "uint256"
        }
      ],
      "name": "PayeeAdded",
      "type": "event"
    },
    {
      "anonymous": false,
      "inputs": [
        {
          "indexed": false,
          "internalType": "address",
          "name": "from",
          "type": "address"
        },
        {
          "indexed": false,
          "internalType": "uint256",
          "name": "amount",
          "type": "uint256"
        }
      ],
      "name": "PaymentReceived",
      "type": "event"
    },
    {
      "anonymous": false,
      "inputs": [
        {
          "indexed": false,
          "internalType": "address",
          "name": "to",
          "type": "address"
        },
        {
          "indexed": false,
          "internalType": "uint256",
          "name": "amount",
          "type": "uint256"
        }
      ],
      "name": "PaymentReleased",
      "type": "event"
    },
    {
      "inputs": [
        {
          "internalType": "uint256",
          "name": "index",
          "type": "uint256"
        }
      ],
      "name": "payee",
      "outputs": [
        {
          "internalType": "address",
          "name": "",
          "type": "address"
        }
      ],
      "stateMutability": "view",
      "type": "function"
    },
    {
      "inputs": [
        {
          "internalType": "address payable",
          "name": "account",
          "type": "address"
        }
      ],
      "name": "release",
      "outputs": [],
      "stateMutability": "nonpayable",
      "type": "function"
    },
    {
      "inputs": [
        {
          "internalType": "contract IERC20Upgradeable",
          "name": "token",
          "type": "address"
        },
        {
          "internalType": "address",
          "name": "account",
          "type": "address"
        }
      ],
      "name": "release",
      "outputs": [],
      "stateMutability": "nonpayable",
      "type": "function"
    },
    {
      "inputs": [
        {
          "internalType": "contract IERC20Upgradeable",
          "name": "token",
          "type": "address"
        },
        {
          "internalType": "address",
          "name": "account",
          "type": "address"
        }
      ],
      "name": "released",
      "outputs": [
        {
          "internalType": "uint256",
          "name": "",
          "type": "uint256"
        }
      ],
      "stateMutability": "view",
      "type": "function"
    },
    {
      "inputs": [
        {
          "internalType": "address",
          "name": "account",
          "type": "address"
        }
      ],
      "name": "released",
      "outputs": [
        {
          "internalType": "uint256",
          "name": "",
          "type": "uint256"
        }
      ],
      "stateMutability": "view",
      "type": "function"
    },
    {
      "inputs": [
        {
          "internalType": "address",
          "name": "account",
          "type": "address"
        }
      ],
      "name": "shares",
      "outputs": [
        {
          "internalType": "uint256",
          "name": "",
          "type": "uint256"
        }
      ],
      "stateMutability": "view",
      "type": "function"
    },
    {
      "inputs": [
        {
          "internalType": "contract IERC20Upgradeable",
          "name": "token",
          "type": "address"
        }
      ],
      "name": "totalReleased",
      "outputs": [
        {
          "internalType": "uint256",
          "name": "",
          "type": "uint256"
        }
      ],
      "stateMutability": "view",
      "type": "function"
    },
    {
      "inputs": [],
      "name": "totalReleased",
      "outputs": [
        {
          "internalType": "uint256",
          "name": "",
          "type": "uint256"
        }
      ],
      "stateMutability": "view",
      "type": "function"
    },
    {
      "inputs": [],
      "name": "totalShares",
      "outputs": [
        {
          "internalType": "uint256",
          "name": "",
          "type": "uint256"
        }
      ],
      "stateMutability": "view",
      "type": "function"
    },
    {
      "stateMutability": "payable",
      "type": "receive"
    }
  ],
  "bytecode": "0x608060405234801561001057600080fd5b506117d0806100206000396000f3fe60806040526004361061008a5760003560e01c80638b83209b116100595780638b83209b146101905780639852595c146101cd578063ce7c2ac21461020a578063d79779b214610247578063e33b7de314610284576100d1565b806319165587146100d65780633a98ef39146100ff578063406072a91461012a57806348b7504414610167576100d1565b366100d1577f6ef95f06320e7a25a04a175ca677b7052bdd97131872c2192525a629f51be7706100b86102af565b346040516100c7929190610d97565b60405180910390a1005b600080fd5b3480156100e257600080fd5b506100fd60048036038101906100f89190610e03565b6102b7565b005b34801561010b57600080fd5b50610114610462565b6040516101219190610e30565b60405180910390f35b34801561013657600080fd5b50610151600480360381019061014c9190610eb5565b61046c565b60405161015e9190610e30565b60405180910390f35b34801561017357600080fd5b5061018e60048036038101906101899190610eb5565b6104f3565b005b34801561019c57600080fd5b506101b760048036038101906101b29190610f21565b6107bb565b6040516101c49190610f4e565b60405180910390f35b3480156101d957600080fd5b506101f460048036038101906101ef9190610f69565b610803565b6040516102019190610e30565b60405180910390f35b34801561021657600080fd5b50610231600480360381019061022c9190610f69565b61084c565b60405161023e9190610e30565b60405180910390f35b34801561025357600080fd5b5061026e60048036038101906102699190610f96565b610895565b60405161027b9190610e30565b60405180910390f35b34801561029057600080fd5b506102996108de565b6040516102a69190610e30565b60405180910390f35b600033905090565b6000603560008373ffffffffffffffffffffffffffffffffffffffff1673ffffffffffffffffffffffffffffffffffffffff1681526020019081526020016000205411610339576040517f08c379a000000000000000000000000000000000000000000000000000000000815260040161033090611046565b60405180910390fd5b60006103436108de565b4761034e9190611095565b90506000610365838361036086610803565b6108e8565b905060008114156103ab576040517f08c379a00000000000000000000000000000000000000000000000000000000081526004016103a29061115d565b60405180910390fd5b80603660008573ffffffffffffffffffffffffffffffffffffffff1673ffffffffffffffffffffffffffffffffffffffff16815260200190815260200160002060008282546103fa9190611095565b9250508190555080603460008282546104139190611095565b925050819055506104248382610956565b7fdf20fd1e76bc69d672e4814fafb2c449bba3a5369d8359adf9e05e6fde87b05683826040516104559291906111dc565b60405180910390a1505050565b6000603354905090565b6000603960008473ffffffffffffffffffffffffffffffffffffffff1673ffffffffffffffffffffffffffffffffffffffff16815260200190815260200160002060008373ffffffffffffffffffffffffffffffffffffffff1673ffffffffffffffffffffffffffffffffffffffff16815260200190815260200160002054905092915050565b6000603560008373ffffffffffffffffffffffffffffffffffffffff1673ffffffffffffffffffffffffffffffffffffffff1681526020019081526020016000205411610575576040517f08c379a000000000000000000000000000000000000000000000000000000000815260040161056c90611046565b60405180910390fd5b600061058083610895565b8373ffffffffffffffffffffffffffffffffffffffff166370a08231306040518263ffffffff1660e01b81526004016105b99190610f4e565b60206040518083038186803b1580156105d157600080fd5b505afa1580156105e5573d6000803e3d6000fd5b505050506040513d601f19601f82011682018060405250810190610609919061121a565b6106139190611095565b9050600061062b8383610626878761046c565b6108e8565b90506000811415610671576040517f08c379a00000000000000000000000000000000000000000000000000000000081526004016106689061115d565b60405180910390fd5b80603960008673ffffffffffffffffffffffffffffffffffffffff1673ffffffffffffffffffffffffffffffffffffffff16815260200190815260200160002060008573ffffffffffffffffffffffffffffffffffffffff1673ffffffffffffffffffffffffffffffffffffffff16815260200190815260200160002060008282546106fd9190611095565b9250508190555080603860008673ffffffffffffffffffffffffffffffffffffffff1673ffffffffffffffffffffffffffffffffffffffff16815260200190815260200160002060008282546107539190611095565b92505081905550610765848483610a4a565b8373ffffffffffffffffffffffffffffffffffffffff167f3be5b7a71e84ed12875d241991c70855ac5817d847039e17a9d895c1ceb0f18a84836040516107ad929190610d97565b60405180910390a250505050565b6000603782815481106107d1576107d0611247565b5b9060005260206000200160009054906101000a900473ffffffffffffffffffffffffffffffffffffffff169050919050565b6000603660008373ffffffffffffffffffffffffffffffffffffffff1673ffffffffffffffffffffffffffffffffffffffff168152602001908152602001600020549050919050565b6000603560008373ffffffffffffffffffffffffffffffffffffffff1673ffffffffffffffffffffffffffffffffffffffff168152602001908152602001600020549050919050565b6000603860008373ffffffffffffffffffffffffffffffffffffffff1673ffffffffffffffffffffffffffffffffffffffff168152602001908152602001600020549050919050565b6000603454905090565b600081603354603560008773ffffffffffffffffffffffffffffffffffffffff1673ffffffffffffffffffffffffffffffffffffffff16815260200190815260200160002054856109399190611276565b61094391906112ff565b61094d9190611330565b90509392505050565b80471015610999576040517f08c379a0000000000000000000000000000000000000000000000000000000008152600401610990906113b0565b60405180910390fd5b60008273ffffffffffffffffffffffffffffffffffffffff16826040516109bf90611401565b60006040518083038185875af1925050503d80600081146109fc576040519150601f19603f3d011682016040523d82523d6000602084013e610a01565b606091505b5050905080610a45576040517f08c379a0000000000000000000000000000000000000000000000000000000008152600401610a3c90611488565b60405180910390fd5b505050565b610acb8363a9059cbb60e01b8484604051602401610a69929190610d97565b604051602081830303815290604052907bffffffffffffffffffffffffffffffffffffffffffffffffffffffff19166020820180517bffffffffffffffffffffffffffffffffffffffffffffffffffffffff8381831617835250505050610ad0565b505050565b6000610b32826040518060400160405280602081526020017f5361666545524332303a206c6f772d6c6576656c2063616c6c206661696c65648152508573ffffffffffffffffffffffffffffffffffffffff16610b979092919063ffffffff16565b9050600081511115610b925780806020019051810190610b5291906114e0565b610b91576040517f08c379a0000000000000000000000000000000000000000000000000000000008152600401610b889061157f565b60405180910390fd5b5b505050565b6060610ba68484600085610baf565b90509392505050565b606082471015610bf4576040517f08c379a0000000000000000000000000000000000000000000000000000000008152600401610beb90611611565b60405180910390fd5b610bfd85610cc3565b610c3c576040517f08c379a0000000000000000000000000000000000000000000000000000000008152600401610c339061167d565b60405180910390fd5b6000808673ffffffffffffffffffffffffffffffffffffffff168587604051610c65919061170c565b60006040518083038185875af1925050503d8060008114610ca2576040519150601f19603f3d011682016040523d82523d6000602084013e610ca7565b606091505b5091509150610cb7828286610cd6565b92505050949350505050565b600080823b905060008111915050919050565b60608315610ce657829050610d36565b600083511115610cf95782518084602001fd5b816040517f08c379a0000000000000000000000000000000000000000000000000000000008152600401610d2d9190611778565b60405180910390fd5b9392505050565b600073ffffffffffffffffffffffffffffffffffffffff82169050919050565b6000610d6882610d3d565b9050919050565b610d7881610d5d565b82525050565b6000819050919050565b610d9181610d7e565b82525050565b6000604082019050610dac6000830185610d6f565b610db96020830184610d88565b9392505050565b600080fd5b6000610dd082610d3d565b9050919050565b610de081610dc5565b8114610deb57600080fd5b50565b600081359050610dfd81610dd7565b92915050565b600060208284031215610e1957610e18610dc0565b5b6000610e2784828501610dee565b91505092915050565b6000602082019050610e456000830184610d88565b92915050565b6000610e5682610d5d565b9050919050565b610e6681610e4b565b8114610e7157600080fd5b50565b600081359050610e8381610e5d565b92915050565b610e9281610d5d565b8114610e9d57600080fd5b50565b600081359050610eaf81610e89565b92915050565b60008060408385031215610ecc57610ecb610dc0565b5b6000610eda85828601610e74565b9250506020610eeb85828601610ea0565b9150509250929050565b610efe81610d7e565b8114610f0957600080fd5b50565b600081359050610f1b81610ef5565b92915050565b600060208284031215610f3757610f36610dc0565b5b6000610f4584828501610f0c565b91505092915050565b6000602082019050610f636000830184610d6f565b92915050565b600060208284031215610f7f57610f7e610dc0565b5b6000610f8d84828501610ea0565b91505092915050565b600060208284031215610fac57610fab610dc0565b5b6000610fba84828501610e74565b91505092915050565b600082825260208201905092915050565b7f5061796d656e7453706c69747465723a206163636f756e7420686173206e6f2060008201527f7368617265730000000000000000000000000000000000000000000000000000602082015250565b6000611030602683610fc3565b915061103b82610fd4565b604082019050919050565b6000602082019050818103600083015261105f81611023565b9050919050565b7f4e487b7100000000000000000000000000000000000000000000000000000000600052601160045260246000fd5b60006110a082610d7e565b91506110ab83610d7e565b9250827fffffffffffffffffffffffffffffffffffffffffffffffffffffffffffffffff038211156110e0576110df611066565b5b828201905092915050565b7f5061796d656e7453706c69747465723a206163636f756e74206973206e6f742060008201527f647565207061796d656e74000000000000000000000000000000000000000000602082015250565b6000611147602b83610fc3565b9150611152826110eb565b604082019050919050565b600060208201905081810360008301526111768161113a565b9050919050565b6000819050919050565b60006111a261119d61119884610d3d565b61117d565b610d3d565b9050919050565b60006111b482611187565b9050919050565b60006111c6826111a9565b9050919050565b6111d6816111bb565b82525050565b60006040820190506111f160008301856111cd565b6111fe6020830184610d88565b9392505050565b60008151905061121481610ef5565b92915050565b6000602082840312156112305761122f610dc0565b5b600061123e84828501611205565b91505092915050565b7f4e487b7100000000000000000000000000000000000000000000000000000000600052603260045260246000fd5b600061128182610d7e565b915061128c83610d7e565b9250817fffffffffffffffffffffffffffffffffffffffffffffffffffffffffffffffff04831182151516156112c5576112c4611066565b5b828202905092915050565b7f4e487b7100000000000000000000000000000000000000000000000000000000600052601260045260246000fd5b600061130a82610d7e565b915061131583610d7e565b925082611325576113246112d0565b5b828204905092915050565b600061133b82610d7e565b915061134683610d7e565b92508282101561135957611358611066565b5b828203905092915050565b7f416464726573733a20696e73756666696369656e742062616c616e6365000000600082015250565b600061139a601d83610fc3565b91506113a582611364565b602082019050919050565b600060208201905081810360008301526113c98161138d565b9050919050565b600081905092915050565b50565b60006113eb6000836113d0565b91506113f6826113db565b600082019050919050565b600061140c826113de565b9150819050919050565b7f416464726573733a20756e61626c6520746f2073656e642076616c75652c207260008201527f6563697069656e74206d61792068617665207265766572746564000000000000602082015250565b6000611472603a83610fc3565b915061147d82611416565b604082019050919050565b600060208201905081810360008301526114a181611465565b9050919050565b60008115159050919050565b6114bd816114a8565b81146114c857600080fd5b50565b6000815190506114da816114b4565b92915050565b6000602082840312156114f6576114f5610dc0565b5b6000611504848285016114cb565b91505092915050565b7f5361666545524332303a204552433230206f7065726174696f6e20646964206e60008201527f6f74207375636365656400000000000000000000000000000000000000000000602082015250565b6000611569602a83610fc3565b91506115748261150d565b604082019050919050565b600060208201905081810360008301526115988161155c565b9050919050565b7f416464726573733a20696e73756666696369656e742062616c616e636520666f60008201527f722063616c6c0000000000000000000000000000000000000000000000000000602082015250565b60006115fb602683610fc3565b91506116068261159f565b604082019050919050565b6000602082019050818103600083015261162a816115ee565b9050919050565b7f416464726573733a2063616c6c20746f206e6f6e2d636f6e7472616374000000600082015250565b6000611667601d83610fc3565b915061167282611631565b602082019050919050565b600060208201905081810360008301526116968161165a565b9050919050565b600081519050919050565b60005b838110156116c65780820151818401526020810190506116ab565b838111156116d5576000848401525b50505050565b60006116e68261169d565b6116f081856113d0565b93506117008185602086016116a8565b80840191505092915050565b600061171882846116db565b915081905092915050565b600081519050919050565b6000601f19601f8301169050919050565b600061174a82611723565b6117548185610fc3565b93506117648185602086016116a8565b61176d8161172e565b840191505092915050565b60006020820190508181036000830152611792818461173f565b90509291505056fea2646970667358221220ec3e8d281c12533e89c00507e0720017d2136c4c8804f98af47320e583c349f364736f6c63430008090033",
  "linkReferences": {},
  "deployedLinkReferences": {}
}